:020000040800F2
:10000000FC340120450700089D0700089D070008F3
:100010009D0700089D0700089D07000800000000DC
:100020000000000000000000000000009D07000824
:100030009D070008000000009D0700089D070008BC
:100040009D0700089D0700089D0700089D07000800
:100050009D0700089D0700089D0700089D070008F0
:100060009D0700089D0700089D0700089D070008E0
:100070009D0700089D0700089D0700089D070008D0
:100080009D0700089D0700089D0700089D070008C0
:100090009D0700089D0700089D0700089D070008B0
:1000A0009D0700089D0700089D0700089D070008A0
:1000B000711300089D0700089D0700089D070008B0
:1000C0009D0700089D0700089D0700089D07000880
:1000D0009D0700089D0700089D0700089D07000870
:1000E0009D0700089D0700089D0700089D07000860
:1000F0009D0700089D0700089D0700089D07000850
:100100009D0700089D0700089D0700089D0700083F
:100110009D0700089D0700089D0700089D0700082F
:100120009D0700089D0700089D0700089D0700081F
:100130009D0700089D0700089D0700089D0700080F
:100140009D0700089D0700089D0700089D070008FF
:10015000291400089D0700089D0700089D07000856
:100160009D0700089D0700089D0700089D070008DF
:100170009D0700089D0700089D0700089D070008CF
:100180009D0700089D070008F0B589B000AFF86032
:10019000B9601346FB800023FB77FB88013B7B6142
:1001A0000023BB61B0E0BB69DB00FA6813445B6805
:1001B000184601F0E1FE0546BB685B68184601F091
:1001C000DBFE024601231C462846114602F0E4F8F5
:1001D0000346002B01D100231C46E4B27B69DB00FF
:1001E000FA6813445B68184601F0C6FE0646BB6811
:1001F0005B68184601F0C0FE024601231D463046EA
:10020000114602F0C9F80346002B01D100231D4618
:10021000EBB26340DBB2002B71D0BB681B681846A1
:1002200001F0AAFE04467B69DB00FA6813441B68F0
:10023000184601F0A1FE0546BB69DB00FA681344CD
:100240001B68184601F098FE03462846194601F03F
:10025000DDFD03461D46BB685B68184601F08CFE59
:100260000646BB69DB00FA6813445B68184601F078
:1002700083FE03463046194601F0C8FD0346284672
:10028000194601F0CDFE03461D467B69DB00FA6886
:1002900013445B68184601F06FFE0646BB69DB003D
:1002A000FA6813445B68184601F066FE0346304660
:1002B000194601F0ABFD03462846194601F064FFDC
:1002C00003461D46BB69DB00FA6813441B681846E9
:1002D00001F052FE03462846194601F099FD0346F7
:1002E0002046194602F03AF80346002B07D0FB7F60
:1002F000012B02D10023FB7701E00123FB77BB69CF
:100300007B61BB690133BB61FA88BB699A423FF7E5
:100310004AAFFB7F18462437BD46F0BD80B588B094
:1003200000AF78600B467B8013463B800023FB7751
:100330000023BB8333E0BB8BDB007A681A4407F1F0
:100340000C0392E8030083E80300BA8B7B88023B2E
:100350009A4207DD7A6807F1140392E8030083E804
:1003600003000AE0BB8B0133DB007A681A4407F113
:10037000140392E8030083E8030007F10C02B7F9C5
:1003800000301046194600F0AFF80346FB77FB7FBC
:10039000002B01D0FB7F07E0BB8B0133BB83BA8B03
:1003A0007B889A42C7D3FB7F18462037BD4680BD65
:1003B00080B58AB000AFF860084611461A46034679
:1003C0007B810B463B811346FB8000237B7642F208
:1003D0000F733B8442F20F73FB830023BB83002324
:1003E0007B830023FB843AE0FB8CDB00FA68134438
:1003F0001A68FB8B9A4205DAFB8CDB00FA6813441F
:100400001B68FB83FB8CDB00FA6813445A683B8C47
:100410009A4205DAFB8CDB00FA6813445B683B8484
:10042000FB8CDB00FA6813441A687B8B9A4205DD6B
:10043000FB8CDB00FA6813441B687B83FB8CDB00BE
:10044000FA6813445A68BB8B9A4205DDFB8CDB00CB
:10045000FA6813445B68BB83FB8C0133FB84FA8C22
:100460007B899A42C0D33B8C7B842AE0FB8BBB8484
:1004700020E0BB8C3B617B8C7B6107F110027B89A8
:10048000F86811461A46FFF77FFE0346002B0ED090
:1004900007F11002B7F906301046194600F07AFD50
:1004A00003467B767B7E002B01D07B7E18E0BB8CE5
:1004B0000133BB84BA8C7B8B9A42DAD37B8C0133B9
:1004C0007B847A8CBB8B9A42D0D37A89B7F9083077
:1004D000F86811461A46FFF721FF03467B767B7EBC
:1004E00018462837BD4680BD2DE9B0438EB000AF19
:1004F00078600B467B80002387F837307B681A686A
:100500007B6808331B689A420FDD7A6807F1240381
:10051000083292E8030083E803007A6807F11C03BD
:1005200092E8030083E803000EE07A6807F12403F1
:1005300092E8030083E803007A6807F11C0308329D
:1005400092E8030083E80300FA697B6AD31AFB6030
:100550003A6ABB6AD31A3B613B69184601F064FBF7
:1005600002460B46904623F00049FB68184601F00E
:100570005BFB02460B46144623F0004540464946C5
:1005800022462B4601F016FC0346002B4BD03B695C
:10059000184601F0F1FC0446FB68184601F0ECFC3B
:1005A00003462046194601F0EFFD0346FB62002397
:1005B000BB8632E0BA8E7B6A13447B61BB8E1846E1
:1005C00001F0DAFC03461846F96A01F029FD0346FA
:1005D0001C46BB6A184601F0CFFC0346204619466C
:1005E00001F016FC0346184601F0E0FE0346BB612D
:1005F00007F11402B7F902301046194600F0CAFCA0
:10060000034687F8373097F83730002B02D097F839
:10061000373092E0BB8E0133BB86BA8EFB68013364
:100620009A42C7DB87E0FB68184601F0A5FC044648
:100630003B69184601F0A0FC03462046194601F02C
:10064000A3FD0346FB623B69002B3ADA00233B63C0
:1006500031E0386B01F090FC03461846F96A01F06E
:10066000DFFC03461C467B6A184601F085FC034606
:100670002046194601F0CCFB0346184601F096FED1
:1006800003467B61BA6A3B6B1344BB6107F11402FA
:10069000B7F902301046194600F07CFC034687F893
:1006A000373097F83730002B02D097F8373044E0D6
:1006B0003B6B013B3B633B695A1E3B6B9A42C8DB79
:1006C00039E000233B6331E0386B01F055FC034611
:1006D0001846F96A01F0A4FC03461C467B6A1846DA
:1006E00001F04AFC03462046194601F091FB0346FF
:1006F000184601F05BFE03467B61BA6A3B6B13440C
:10070000BB6107F11402B7F902301046194600F038
:1007100041FC034687F8373097F83730002B02D07A
:1007200097F8373009E03B6B01333B633B695A1C58
:100730003B6B9A42C8DC97F8373018463837BD46CD
:10074000BDE8B08380B582B000AF0F4B7B600F4B2C
:100750003B6007E03B681A1D3A607A68111D7960BA
:1007600012681A603B680A4A9342F3D309480A495F
:100770004FF000028842B8BF40F8042BFADB00F0CB
:1007800011F80837BD4680BD8C2500080000002008
:100790000000002000000020FC2C012080B400AFED
:1007A000FEE700BF80B596B002AF00F049F900F057
:1007B00073FC1F2000F040FC084A3B4611465022C3
:1007C000184601F019FE3A460123009310460A210B
:1007D0000022E023FFF7ECFDFEE700BF3C25000808
:1007E00080B483B000AF78600B46FB70FB78002BC1
:1007F00006D00949084B1A6B7B6813430B6306E06C
:100800000549054B1A6B7B68DB4313400B630C37C0
:10081000BD465DF8047B70470038024080B483B069
:1008200000AF78600B46FB70FB78002B06D00949BF
:10083000084B1A6C7B6813430B6406E00549054BB3
:100840001A6C7B68DB4313400B640C37BD465DF8C4
:10085000047B70470038024080B483B000AF7860FA
:100860000B46FB70FB78002B06D00949084B5A6CED
:100870007B6813434B6406E00549054B5A6C7B6863
:10088000DB4313404B640C37BD465DF8047B704777
:100890000038024080B487B000AF78603960002330
:1008A0007B6100233B610023FB6000237B6176E0DA
:1008B0007B69012202FA03F33B613B681A683B69DA
:1008C0001340FB60FA683B699A4265D17B681A68FD
:1008D0007B695B00194603238B40DB431A407B682E
:1008E0001A607B681A683B681B7919467B695B0054
:1008F00001FA03F31A437B681A603B681B79012BEA
:1009000003D03B681B79022B2ED17B689A687B69E8
:100910005B00194603238B40DB431A407B689A60D7
:100920007B689A683B685B7919467B695B0001FAD2
:1009300003F31A437B689A607B685A687B699BB2B1
:10094000194601238B40DB431A407B685A607B6861
:100950005B683A68927911467A6992B201FA02F2BA
:1009600092B21A437B685A607B68DA687B699BB2F3
:100970005B00032101FA03F3DB431A407B68DA6072
:100980007B68DA683B68DB7919467B695B0001FAB2
:1009900003F31A437B68DA607B6901337B617B690F
:1009A0000F2B85D91C37BD465DF8047B704700BF0F
:1009B00080B485B000AF78600B467B8013467B70B7
:1009C0000023FB600023BB607B787A8802F007027B
:1009D00092009340FB607B88DB089BB218467B88C3
:1009E000DB089BB21A467B68083253F822207B88CA
:1009F00003F007039B0019460F238B40DB4302EAF9
:100A000003017B6800F1080243F822107B88DB08B1
:100A10009BB21A467B68083253F82220FB681343C6
:100A2000BB607B88DB089BB21A467B680832B968DA
:100A300043F822101437BD465DF8047B704700BFB1
:100A400080B500AF114A114B1B6843F001031360DE
:100A50000E4B00229A600D4A0C4B1B6823F08473E6
:100A600023F480331360094B094A5A60074A074B45
:100A70001B6823F480231360044B0022DA6000F02B
:100A80000BF8044B4FF000629A6080BD00380240C2
:100A90001030002400ED00E080B483B000AF0023EC
:100AA0007B6000233B60354A344B1B6843F4803342
:100AB0001360324B1B6803F400333B607B680133E7
:100AC0007B603B68002B03D17B68B3F5A06FF0D14E
:100AD0002A4B1B6803F40033002B02D001233B6038
:100AE00001E000233B603B68012B42D1234A234BAA
:100AF0001B6C43F080531364214A214B1B6843F461
:100B0000804313601D4A1D4B9B6893601B4A1B4B1F
:100B10009B6843F400439360184A184B9B6843F466
:100B2000A0539360154B174A5A60144A134B1B6825
:100B300043F08073136000BF104B1B6803F0007319
:100B4000002BF9D0104B40F205621A600B4A0B4B98
:100B50009B6823F003039360084A084B9B6843F0AB
:100B60000203936000BF054B9B6803F00C03082B46
:100B7000F9D10C37BD465DF8047B70470038024060
:100B80000070004008544007003C024080B483B02D
:100B900000AF78607B681B6823F001027B681A60F5
:100BA0007B6800221A607B6800225A607B68002202
:100BB0009A607B680022DA607B6800221A617B6899
:100BC00021225A617B68454A934203D1444B3D221E
:100BD0009A607EE07B68434A934204D1404B4FF4D5
:100BE00074629A6075E07B683F4A934204D13C4B43
:100BF0004FF474129A606CE07B683C4A934204D1D3
:100C0000374B4FF074629A6063E07B68384A9342D6
:100C100003D1334B374ADA605BE07B68364A934254
:100C200003D12F4B354ADA6053E07B68344A934254
:100C300003D12B4B334ADA604BE07B68324A934254
:100C400004D1274B4FF03D52DA6042E07B682F4AD7
:100C5000934203D12E4B3D229A603AE07B682D4AA5
:100C6000934204D12A4B4FF474629A6031E07B685E
:100C7000294A934204D1264B4FF474129A6028E01B
:100C80007B68264A934204D1214B4FF074629A60EC
:100C90001FE07B68224A934203D11D4B154ADA605C
:100CA00017E07B681F4A934203D1194B134ADA605D
:100CB0000FE07B681C4A934203D1154B114ADA605E
:100CC00007E07B68194A934203D1114B4FF03D5224
:100CD000DA600C37BD465DF8047B70471060024057
:100CE00000600240286002404060024058600240BC
:100CF000706002403D00002088600240400F0020EC
:100D0000A060024000003D20B86002401064024034
:100D1000006402402864024040640240586402407B
:100D20007064024088640240A0640240B8640240DB
:100D300080B485B000AF786039600023FB607B68C9
:100D40001B68FB60FA68244B1340FB603B681A6821
:100D50003B68DB681A433B685B691A433B689B69E5
:100D60001A433B68DB691A433B681B6A1A433B68BA
:100D70005B6A1A433B689B6A1A433B685B6B1A4386
:100D80003B689B6B1343FA681343FB607B68FA680C
:100D90001A607B685B69FB60FB6823F00703FB60FC
:100DA0003B68DA6A3B681B6B1343FA681343FB60CA
:100DB0007B68FA685A613B681A697B685A603B68CD
:100DC0005A687B689A603B689A687B68DA60143777
:100DD000BD465DF8047B70473F801CF080B483B053
:100DE00000AF78600B46FB70FB78002B06D07B6869
:100DF0001B6843F001027B681A6005E07B681B6892
:100E000023F001027B681A600C37BD465DF8047B55
:100E1000704700BF80B485B000AFF860B96013467A
:100E2000FB71BB6803F08003002B0FD0FB79002B14
:100E300006D0FB685B6943F08002FB685A6105E0FD
:100E4000FB685B6923F08002FB685A61BB68802BFA
:100E500014D0FB79002B08D0FB681A68BB6803F03C
:100E60001E031A43FB681A6008E0FB681A68BB6837
:100E700003F01E03DB431A40FB681A601437BD46BB
:100E80005DF8047B704700BF80B487B000AF786026
:100E900039600023FB750023FB600023BB607B6887
:100EA000224A934202D8224B3B6101E0214B3B6135
:100EB0003B6823F0F02323F0C313002B0AD03B68D8
:100EC000DB0A03F01E03FB607B681A68FB681340B3
:100ED000BB6004E07B685B6903F08003BB603B6838
:100EE00003F00053002B03D03B695B68FB6002E01A
:100EF0003B691B68FB60FB6823F0F02323F082133F
:100F0000FB60FA683B681340002B05D0BB68002BE0
:100F100002D00123FB7501E00023FB75FB7D184621
:100F20001C37BD465DF8047B704700BF0F6402406C
:100F3000006002400064024080B485B000AF786079
:100F400039607B68104A934202D8104BFB6001E085
:100F50000F4BFB603B6803F00053002B07D03B684E
:100F600023F0F02323F08213FA68D36006E03B6895
:100F700023F0F02323F08213FA6893601437BD4600
:100F80005DF8047B704700BF0F64024000600240C0
:100F90000064024080B582B000AF78600B467B8071
:100FA0007B681B68002B25DB7B681B68B3F5A07F83
:100FB00020DA7B685B68002B1CDB7B685B68EF2BAF
:100FC00018DC7B685A6813469B0013449B011A4443
:100FD0007B681B6813447A88D1B2094AD154786877
:100FE00000F010F803461A46B7F90230934201D0D8
:100FF000012300E0002318460837BD4680BD00BF2E
:101000000C00002080B483B000AF78607B685A6821
:1010100013469B0013449B011A447B681B681344CE
:10102000044AD35C9BB21BB218460C37BD465DF830
:10103000047B70470C00002080B586B000AF0346EB
:10104000FB800023BB751FE00023BB8215E0BB8A39
:10105000FB60BB7D3B6107F10C02B7F9063010461F
:101060001946FFF797FF0346FB75FB7D002B01D068
:10107000FB7D0DE0BB8A0133BB82BB8AB3F5A07F49
:10108000E5D3BB7D0133BB75BB7DEF2BDCD9FB7D8D
:1010900018461837BD4680BD80B582B000AF1B4BE7
:1010A00000221A80194B00225A60184B00229A60C5
:1010B0000023BB8017E00023FB800DE0BA881346B5
:1010C0009B0013449B011A44FB881344104A0021DF
:1010D000D154FB880133FB80FB88B3F5A07FEDD9A9
:1010E000BB880133BB80BB88EF2BE4D900F014F838
:1010F00000F066F800F0F4F800F0C6F8054B1B6845
:10110000024A93600837BD4680BD00BF0000002042
:101110000C0000208864024080B582B000AF10202F
:101120000121FFF75DFB4FF47F433B6001233B71DF
:101130000023BB710123FB7103237B713B461E48D7
:101140001946FFF7A7FB1C4B4FF47F425A8302203E
:101150000121FFF745FB4FF400633B6002233B7125
:1011600003237B710023BB710123FB713B461348B2
:101170001946FFF78FFB11480B210122FFF718FCDE
:1011800002200121FFF72CFB4FF480533B60012329
:101190003B710023BB710123FB7103237B713B4631
:1011A00006481946FFF776FB044B4FF480521A832A
:1011B0000837BD4680BD00BF001002400004024059
:1011C00080B588B000AF01200121FFF745FB0B235C
:1011D000BB610023BB820023BB830023FB8207F19A
:1011E00014032848194600F0A5F901200121FFF752
:1011F00015FB40F66B23BB610023BB820023BB833E
:101200000023FB8207F114034FF08040194600F0E1
:1012100091F960233B8001237B804FF4D273BB6044
:101220000223BB813B464FF08040194600F02CFA68
:101230004FF08040082100F013FB60233B80012326
:101240007B804FF4A073BB600223BB813B464FF011
:101250008040194600F09EFA4FF08040082100F0CF
:101260001BFB0848012100F0CFF94FF0804001211D
:1012700000F0CAF94FF08040012100F0E5F9203775
:10128000BD4680BD0000014080B582B000AF13486C
:1012900010210122FFF7BEFD44233B7100237B7127
:1012A0000023BB710123FB713B1D184600F0E2F8DF
:1012B0004FF080400821012200F00CFB1C233B7101
:1012C00000237B710023BB710123FB713B1D18467A
:1012D00000F0D0F80837BD4680BD00BF88640240EA
:1012E00080B590B000AF4FF480000121FFF778FA8D
:1012F0001B480021FFF772FD1948FFF747FC4FF02C
:1013000040637B60174BBB60174BFB6040233B6126
:1013100040F241137B610023BB614FF48063FB61AA
:1013200000233B6200237B620023BB624FF4403307
:10133000FB6200233B6301237B630023BB63002329
:10134000FB633B1D06481946FFF7F2FC07484FF4C4
:101350008071012200F0F2FA4037BD4680BD00BF27
:1013600088640240151002400C000020000001407B
:1013700080B500AF4FF08040082100F0CFFA254B38
:101380001B8801339AB2234B1A80224B1B88B3F57A
:10139000037F05D91F4B00221A801F4A1D4B5A603C
:1013A0001C4B1B88012B04D81C4B4FF480525A83D2
:1013B00003E01A4B4FF480521A83164B1B88232BE1
:1013C00027D9144B1B8840F20222934221D8144A99
:1013D000104B9B681360124A0E4B5B68D360114A36
:1013E000104B1B889BB243F001039BB213800C4A45
:1013F0000B4B1B6843F001031360064B1B8803F083
:101400000103002B05D0034B5B6803F24113014A33
:10141000536080BD000000200C000020000402404A
:10142000886402400000014080B500AF0D480E49BD
:10143000FFF72AFD0346002B12D00A480A49FFF79E
:101440007BFD0A4A094B1B889BB223F001039BB228
:101450001380044B00221A60054B4FF47F425A83DD
:1014600080BD00BF88640240008800200000014069
:101470000010024080B485B000AF78600023FB7399
:101480000023BB730F237B737B68DB78002B38D082
:10149000264BDB68DB4303F4E0631B0AFB73FB7B37
:1014A000C3F10403BB737A7BFB7B42FA03F37B73C8
:1014B0007B685B781A46BB7B02FA03F3FB737B689D
:1014C0009A787B7B1340DAB2FB7B1343FB73FB7B85
:1014D0001B01FB73164A7B681B781344FA7B83F865
:1014E0000023134A7B681B785B09DBB218467B68D4
:1014F0001B7803F01F03012101FA03F342F82030A7
:101500000FE00B497B681B785B09DBB218467B68F0
:101510001B7803F01F0301229A4000F1200341F8D9
:1015200023201437BD465DF8047B704700ED00E0D2
:1015300000E100E080B485B000AF7860396000233E
:10154000FB817B681B88FB817B68284A934213D010
:101550007B68274A93420FD07B68B3F1804F0BD052
:101560007B68244A934207D07B68234A934203D086
:101570007B68224A934208D1FB8923F07003FB81E8
:101580003B685A88FB891343FB817B681C4A934262
:101590000CD07B681B4A934208D0FB8923F440732C
:1015A000FB813B681A89FB891343FB817B68FA89BD
:1015B0001A803B685A687B68DA623B681A887B68E5
:1015C0001A857B68094A934203D07B68084A934294
:1015D00004D13B689B7A9AB27B681A867B680122A9
:1015E0009A821437BD465DF8047B704700000140C5
:1015F000000401400004004000080040000C0040CE
:10160000001000400014004080B483B000AF786048
:101610000B46FB70FB78002B08D07B681B889BB2C5
:1016200043F080039AB27B681A8007E07B681B88CE
:101630009BB223F080039AB27B681A800C37BD46B8
:101640005DF8047B704700BF80B483B000AF786062
:101650000B46FB70FB78002B08D07B681B889BB285
:1016600043F001039AB27B681A8007E07B681B880D
:101670009BB223F001039AB27B681A800C37BD46F7
:101680005DF8047B704700BF80B485B000AF786020
:10169000396000237B810023FB810023BB817B68B1
:1016A0001B8C9BB223F480739AB27B681A847B688C
:1016B0001B8CFB817B689B88BB817B689B8B7B81C0
:1016C0007B8923F070037B817B8923F003037B817B
:1016D0003B681A887B8913437B81FB8923F4007361
:1016E000FB813B689B891B029AB2FB891343FB81F8
:1016F0003B685B881B029AB2FB891343FB817B68C2
:10170000224A934203D07B68214A93422BD1FB8922
:1017100023F40063FB813B68DB891B029AB2FB89DF
:101720001343FB81FB8923F48063FB813B689B8827
:101730001B029AB2FB891343FB81BB8923F48053BC
:10174000BB81BB8923F40053BB813B681B8A1B010F
:101750009AB2BB891343BB813B685B8A1B019AB277
:10176000BB891343BB817B68BA899A807B687A897D
:101770009A833B689A687B68DA637B68FA891A8483
:101780001437BD465DF8047B704700BF0000014080
:101790000004014080B485B000AF78603960002358
:1017A000BB8100237B810023FB817B681B8C9BB268
:1017B00023F480539AB27B681A847B681B8C7B81EC
:1017C0007B689B88FB817B689B8BBB81BB8923F4F7
:1017D000E043BB81BB8923F44073BB813B681B881A
:1017E0001B029AB2BB891343BB817B8923F400534C
:1017F0007B813B689B891B039AB27B8913437B8166
:101800003B685B881B039AB27B8913437B817B68AF
:10181000114A934203D07B68104A93420AD1FB8954
:1018200023F48043FB813B681B8A9B019AB2FB89AE
:101830001343FB817B68FA899A807B68BA899A8313
:101840003B689A687B681A647B687A891A841437C3
:10185000BD465DF8047B7047000001400004014074
:1018600080B485B000AF78600B467B800023FB819D
:101870007B689B8BFB81FB8923F00803FB81FA8942
:101880007B881343FB817B68FA899A831437BD46B2
:101890005DF8047B704700BF80B485B000AF78600E
:1018A0000B467B800023FB817B689B8BFB81FB8944
:1018B00023F40063FB817B881B029AB2FB891343EC
:1018C000FB817B68FA899A831437BD465DF8047BF7
:1018D000704700BF80B483B000AF78600B467B8058
:1018E00013467B707B78002B08D07B689B899AB26B
:1018F0007B8813439AB27B689A8109E07B689B8955
:101900009AB27B88DB439BB213409AB27B689A8180
:101910000C37BD465DF8047B704700BF80B483B0D0
:1019200000AF78600B467B807B88DB439AB27B6894
:101930001A820C37BD465DF8047B704780B483B0D3
:1019400000AF78600B467B8013467B707B78002B62
:1019500008D07B689B899AB27B8813439AB27B68D4
:101960009A8109E07B689B899AB27B88DB439BB2B2
:1019700013409AB27B689A810C37BD465DF8047BB0
:10198000704700BF81F0004102E000BF83F00043D8
:1019900030B54FEA41044FEA430594EA050F08BF0A
:1019A00090EA020F1FBF54EA000C55EA020C7FEACE
:1019B000645C7FEA655C00F0E2804FEA5454D4EB4B
:1019C0005555B8BF6D420CDD2C4480EA020281EA15
:1019D000030382EA000083EA010180EA020281EA4D
:1019E0000303362D88BF30BD11F0004F4FEA01319F
:1019F0004FF4801C4CEA113102D0404261EB4101AE
:101A000013F0004F4FEA03334CEA133302D0524233
:101A100063EB430394EA050F00F0A780A4F10104EF
:101A2000D5F1200E0DDB02FA0EFC22FA05F2801829
:101A300041F1000103FA0EF2801843FA05F359410F
:101A40000EE0A5F120050EF1200E012A03FA0EFC8E
:101A500028BF4CF0020C43FA05F3C01851EBE371B8
:101A600001F0004507D54FF0000EDCF1000C7EEBD5
:101A700000006EEB0101B1F5801F1BD3B1F5001F13
:101A80000CD349085FEA30004FEA3C0C04F1010432
:101A90004FEA445212F5800F80F09A80BCF1004F5B
:101AA00008BF5FEA500C50F1000041EB045141EADD
:101AB000050130BD5FEA4C0C404141EB010111F4DE
:101AC000801FA4F10104E9D191F0000F04BF014689
:101AD0000020B1FA81F308BF2033A3F10B03B3F167
:101AE00020020CDA0C3208DD02F1140CC2F10C02F7
:101AF00001FA0CF021FA02F10CE002F11402D8BF55
:101B0000C2F1200C01FA02F120FA0CFCDCBF41EA20
:101B10000C019040E41AA2BF01EB0451294330BDEF
:101B20006FEA04041F3C1CDA0C340EDC04F11404CC
:101B3000C4F1200220FA04F001FA02F340EA0300A3
:101B400021FA04F345EA030130BDC4F10C04C4F1E9
:101B5000200220FA02F001FA04F340EA03002946C9
:101B600030BD21FA04F0294630BD94F0000F83F413
:101B7000801306BF81F480110134013D4EE77FEAF6
:101B8000645C18BF7FEA655C29D094EA050F08BF42
:101B900090EA020F05D054EA000C04BF1946104623
:101BA00030BD91EA030F1EBF0021002030BD5FEA67
:101BB000545C05D14000494128BF41F0004130BD8F
:101BC00014F580043CBF01F5801130BD01F00045E3
:101BD00045F0FE4141F470014FF0000030BD7FEA56
:101BE000645C1ABF194610467FEA655C1CBF0B4651
:101BF000024650EA013406BF52EA033591EA030F68
:101C000041F4002130BD00BF90F0000F04BF00215F
:101C1000704730B54FF4806404F132044FF0000592
:101C20004FF0000150E700BF90F0000F04BF00210B
:101C3000704730B54FF4806404F1320410F0004571
:101C400048BF40424FF000013EE700BF42004FEA6C
:101C5000E2014FEA31014FEA02701FBF12F07F43E9
:101C600093F07F4F81F06051704792F0000F14BFE6
:101C700093F07F4F704730B54FF4607401F000452A
:101C800021F0004120E700BF50EA010208BF704781
:101C900030B54FF000050AE050EA010208BF704776
:101CA00030B511F0004502D5404261EB41014FF4DF
:101CB000806404F132045FEA915C3FF4DCAE4FF0E3
:101CC00003025FEADC0C18BF03325FEADC0C18BFCA
:101CD000033202EBDC02C2F1200300FA03FC20FA1B
:101CE00002F001FA03FE40EA0E0021FA02F1144468
:101CF000C1E600BF4FF0FF3C06E000BF4FF0010C13
:101D000002E000BF4FF0010C4DF804CD4FEA410C4A
:101D10007FEA6C5C4FEA430C18BF7FEA6C5C1BD017
:101D200001B050EA410C0CBF52EA430C91EA030F98
:101D300002BF90EA020F0020704710F1000F91EAF5
:101D4000030F58BF994208BF90422CBFD8176FEAC3
:101D5000E37040F0010070474FEA410C7FEA6C5C91
:101D600002D150EA013C07D14FEA430C7FEA6C5C98
:101D7000D6D152EA033CD3D05DF8040B704700BFC4
:101D80008446104662468C461946634600E000BF12
:101D900001B5FFF7B7FF002848BF10F1000F01BDE4
:101DA0004DF808EDFFF7F4FF0CBF012000205DF8AF
:101DB00008FB00BF4DF808EDFFF7EAFF34BF012034
:101DC00000205DF808FB00BF4DF808EDFFF7E0FFCD
:101DD00094BF012000205DF808FB00BF4DF808ED1E
:101DE000FFF7CEFF94BF012000205DF808FB00BF85
:101DF0004DF808EDFFF7C4FF34BF012000205DF867
:101E000008FB00BF80F0004002E000BF81F000410D
:101E100042001FBF5FEA410392EA030F7FEA226C90
:101E20007FEA236C6AD04FEA1262D2EB1363C1BF20
:101E3000D218414048404140B8BF5B42192B88BF8F
:101E4000704710F0004F40F4000020F07F4018BFB2
:101E5000404211F0004F41F4000121F07F4118BFD2
:101E6000494292EA030F3FD0A2F1010241FA03FC7A
:101E700010EB0C00C3F1200301FA03F100F0004362
:101E800002D5494260EB4000B0F5000F13D3B0F12A
:101E9000807F06D340084FEA310102F10102FE2A99
:101EA00051D2B1F1004F40EBC25008BF20F0010009
:101EB00040EA03007047490040EB000010F4000FB7
:101EC000A2F10102EDD1B0FA80FCACF1080CB2EB4A
:101ED0000C0200FA0CF0AABF00EBC25052421843A9
:101EE000BCBFD0401843704792F0000F81F400014E
:101EF00006BF80F400000132013BB5E74FEA410321
:101F00007FEA226C18BF7FEA236C21D092EA030F8C
:101F100004D092F0000F08BF0846704790EA010F06
:101F20001CBF0020704712F07F4F04D1400028BF33
:101F300040F00040704712F100723CBF00F5000015
:101F4000704700F0004343F0FE4040F4000070474B
:101F50007FEA226216BF08467FEA236301464202F7
:101F600006BF5FEA412390EA010F40F4800070470A
:101F70004FF0000304E000BF10F0004348BF4042B0
:101F80005FEA000C08BF704743F0964301464FF0EC
:101F900000001CE050EA010208BF70474FF0000348
:101FA0000AE000BF50EA010208BF704711F0004389
:101FB00002D5404261EB41015FEA010C02BF844659
:101FC0000146002043F0B64308BFA3F18053A3F5B8
:101FD0000003BCFA8CF2083AA3EBC25310DB01FAFF
:101FE00002FC634400FA02FCC2F12002BCF1004F83
:101FF00020FA02F243EB020008BF20F00100704714
:1020000002F1200201FA02FCC2F1200250EA4C0067
:1020100021FA02F243EB020008BF20EADC707047AD
:102020004FF0FF0C1CEAD0521EBF1CEAD15392EABB
:102030000C0F93EA0C0F6FD01A4480EA010C400297
:1020400018BF5FEA41211ED04FF0006343EA5010F1
:1020500043EA5111A0FB01310CF00040B1F5000F33
:102060003EBF490041EAD3715B0040EA010062F1E2
:102070007F02FD2A1DD8B3F1004F40EBC25008BFCC
:1020800020F00100704790F0000F0CF0004C08BFEA
:1020900049024CEA502040EA51207F3AC2BFD2F1B7
:1020A000FF0340EAC250704740F400004FF00003C5
:1020B000013A5DDC12F1190FDCBF00F000407047FF
:1020C000C2F10002410021FA02F1C2F1200200FA3D
:1020D00002FC5FEA310040F1000053EA4C0308BF04
:1020E00020EADC70704792F0000F00F0004C02BF55
:1020F000400010F4000F013AF9D040EA0C0093F0D0
:10210000000F01F0004C02BF490011F4000F013B29
:10211000F9D041EA0C018FE70CEAD15392EA0C0F97
:1021200018BF93EA0C0F0AD030F0004C18BF31F002
:10213000004CD8D180EA010000F00040704790F0D8
:10214000000F17BF90F0004F084691F0000F91F07C
:10215000004F14D092EA0C0F01D142020FD193EA42
:102160000C0F03D14B0218BF084608D180EA0100CA
:1021700000F0004040F0FE4040F40000704740F0A6
:10218000FE4040F4400070474FF0FF0C1CEAD05274
:102190001EBF1CEAD15392EA0C0F93EA0C0F69D0D0
:1021A000A2EB030280EA010C49024FEA402037D03B
:1021B0004FF0805343EA111143EA10130CF0004032
:1021C0008B4238BF5B0042F17D024FF4000C8B4222
:1021D00024BF5B1A40EA0C00B3EB510F24BFA3EB02
:1021E000510340EA5C00B3EB910F24BFA3EB9103D2
:1021F00040EA9C00B3EBD10F24BFA3EBD10340EA2C
:10220000DC001B0118BF5FEA1C1CE0D1FD2A3FF671
:1022100050AF8B4240EBC25008BF20F00100704726
:102220000CF0004C4CEA50207F32C2BFD2F1FF03C9
:1022300040EAC250704740F400004FF00003013AFA
:1022400037E792F0000F00F0004C02BF400010F49E
:10225000000F013AF9D040EA0C0093F0000F01F0B2
:10226000004C02BF490011F4000F013BF9D041EAD4
:102270000C0195E70CEAD15392EA0C0F08D1420207
:102280007FF47DAF93EA0C0F7FF470AF084676E7DA
:1022900093EA0C0F04D14B023FF44CAF08466EE7B3
:1022A00030F0004C18BF31F0004CCAD130F0004281
:1022B0007FF45CAF31F000437FF43CAF5FE700BFD9
:1022C0004FF0FF3C06E000BF4FF0010C02E000BF02
:1022D0004FF0010C4DF804CD4FEA40024FEA4103A4
:1022E0007FEA226C18BF7FEA236C11D001B052EA5A
:1022F000530C18BF90EA010F58BFB2EB030088BF20
:10230000C81738BF6FEAE17018BF40F0010070478E
:102310007FEA226C02D15FEA402C05D17FEA236C70
:10232000E4D15FEA412CE1D05DF8040B704700BFB7
:10233000844608466146FFE70FB5FFF7C9FF00284E
:1023400048BF10F1000F0FBD4DF808EDFFF7F4FF87
:102350000CBF012000205DF808FB00BF4DF808ED20
:10236000FFF7EAFF34BF012000205DF808FB00BF43
:102370004DF808EDFFF7E0FF94BF012000205DF865
:1023800008FB00BF4DF808EDFFF7D2FF94BF012016
:1023900000205DF808FB00BF4DF808EDFFF7C8FF0F
:1023A00034BF012000205DF808FB00BF4FEA400267
:1023B000B2F1FE4F0FD34FF09E03B3EB12620DD973
:1023C0004FEA002343F0004310F0004F23FA02F0DD
:1023D00018BF404270474FF00000704712F1610F84
:1023E00001D1420205D110F0004008BF6FF000405B
:1023F00070474FF000007047844641EA000313F035
:1024000003036DD1403A41D351F8043B40F8043BFB
:1024100051F8043B40F8043B51F8043B40F8043BBE
:1024200051F8043B40F8043B51F8043B40F8043BAE
:1024300051F8043B40F8043B51F8043B40F8043B9E
:1024400051F8043B40F8043B51F8043B40F8043B8E
:1024500051F8043B40F8043B51F8043B40F8043B7E
:1024600051F8043B40F8043B51F8043B40F8043B6E
:1024700051F8043B40F8043B51F8043B40F8043B5E
:1024800051F8043B40F8043B403ABDD2303211D3FE
:1024900051F8043B40F8043B51F8043B40F8043B3E
:1024A00051F8043B40F8043B51F8043B40F8043B2E
:1024B000103AEDD20C3205D351F8043B40F8043BFE
:1024C000043AF9D2043208D0D2071CBF11F8013BFC
:1024D00000F8013B01D30B8803806046704700BFC2
:1024E000082A13D38B078DD010F003038AD0C3F1D1
:1024F0000403D21ADB071CBF11F8013B00F8013BB3
:1025000080D331F8023B20F8023B7BE7043AD9D371
:10251000013A11F8013B00F8013BF9D20B78037046
:102520004B7843708B7883706046704732000000B0
:10253000780000000000A0410000A04264000000FC
:102540006400000078000000960000009600000083
:1025500063000000AA000000AA000000AA0000001A
:1025600064000000BE00000082000000F0000000D7
:1025700064000000BE00000050000000E900000000
:0C2580003200000064000000BE000000FB
:0400000508000000EF
:00000001FF
