:020000040800F2
:100000005C35012089010008E1010008E1010008D8
:10001000E1010008E1010008E10100080000000022
:10002000000000000000000000000000E1010008E6
:10003000E101000800000000E1010008E101000802
:10004000E1010008E1010008E1010008E101000808
:10005000E1010008E1010008E1010008E1010008F8
:10006000E1010008E1010008E1010008E1010008E8
:10007000E1010008E1010008E1010008E1010008D8
:10008000E1010008E1010008E1010008E1010008C8
:10009000E1010008E1010008E1010008E1010008B8
:1000A000E1010008E1010008E1010008E1010008A8
:1000B00075030008E1010008E1010008E101000802
:1000C000E1010008E1010008E1010008E101000888
:1000D000E1010008E1010008E1010008E101000878
:1000E000E1010008E1010008E1010008E101000868
:1000F000E1010008E1010008E1010008E101000858
:10010000E1010008E1010008E1010008E101000847
:10011000E1010008E1010008E1010008E101000837
:10012000E1010008E1010008E1010008E101000827
:10013000E1010008E1010008E1010008E101000817
:10014000E1010008E1010008E1010008E101000807
:100150002D040008E1010008E1010008E1010008A8
:10016000E1010008E1010008E1010008E1010008E7
:10017000E1010008E1010008E1010008E1010008D7
:10018000E1010008E101000880B582B000AF0F4B2B
:100190007B600F4B3B6007E03B681A1D3A607A6852
:1001A000111D796012681A603B680A4A9342F3D3C2
:1001B00009480A494FF000028842B8BF40F8042BB2
:1001C000FADB00F011F80837BD4680BD980400083E
:1001D000000000200000002000000020602D012011
:1001E00080B400AFFEE700BF80B582B000AF00234F
:1001F0003B7100237B713B1D1846002100F088F8FD
:10020000FEE700BF80B487B000AF7860396000239C
:10021000FB750023FB600023BB607B68224A93428E
:1002200002D8224B3B6101E0214B3B613B6823F04C
:10023000F02323F0C313002B0AD03B68DB0A03F042
:100240001E03FB607B681A68FB681340BB6004E018
:100250007B685B6903F08003BB603B6803F000537D
:10026000002B03D03B695B68FB6002E03B691B68C5
:10027000FB60FB6823F0F02323F08213FB60FA6835
:100280003B681340002B05D0BB68002B02D0012334
:10029000FB7501E00023FB75FB7D18461C37BD464E
:1002A0005DF8047B704700BF0F64024000600240AD
:1002B0000064024080B485B000AF786039607B682C
:1002C000104A934202D8104BFB6001E00F4BFB60D9
:1002D0003B6803F00053002B07D03B6823F0F0236A
:1002E00023F08213FA68D36006E03B6823F0F02322
:1002F00023F08213FA6893601437BD465DF8047BDF
:10030000704700BF0F64024000600240006402407A
:1003100080B483B000AF78600B46FB707B681B78BD
:1003200019467B685B781846114A0B469B000B44C4
:100330005B0003441344FA781A707B681B781946F3
:100340007B685B7818460A4A0B469B000B445B00AF
:10035000034413441B78FA789A4201D0012300E049
:10036000002318460C37BD465DF8047B704700BF7C
:10037000FC2C012080B500AF4FF08040082100F038
:100380007BF8254B1B8801339AB2234B1A80224BF2
:100390001B88B3F5037F05D91F4B00221A801F4A23
:1003A0001D4B5A601C4B1B88012B04D81C4B4FF46F
:1003B00080525A8303E01A4B4FF480521A83164B33
:1003C0001B88232B27D9144B1B8840F2022293420F
:1003D00021D8144A104B9B681360124A0E4B5B687D
:1003E000D360114A104B1B889BB243F001039BB2B0
:1003F00013800C4A0B4B1B6843F001031360064B40
:100400001B8803F00103002B05D0034B5B6803F24C
:100410004113014A536080BD000000200C00002001
:1004200000040240886402400000014080B500AF33
:100430000D480E49FFF7E6FE0346002B12D00A488E
:100440000A49FFF737FF0A4A094B1B889BB223F082
:1004500001039BB21380044B00221A60054B4FF43A
:100460007F425A8380BD00BF88640240008800201C
:10047000000001400010024080B483B000AF7860FB
:100480000B467B807B88DB439AB27B681A820C37F1
:08049000BD465DF8047B7047D6
:0400000508000000EF
:00000001FF
