:020000040800F2
:10000000FC340120A90600080107000801070008C8
:1000100001070008010700080107000800000000B0
:1000200000000000000000000000000001070008C0
:100030000107000800000000010700080107000890
:100040000107000801070008010700080107000870
:100050000107000801070008010700080107000860
:100060000107000801070008010700080107000850
:100070000107000801070008010700080107000840
:100080000107000801070008010700080107000830
:100090000107000801070008010700080107000820
:1000A0000107000801070008010700080107000810
:1000B00001130008010700080107000801070008F4
:1000C00001070008010700080107000801070008F0
:1000D00001070008010700080107000801070008E0
:1000E00001070008010700080107000801070008D0
:1000F00001070008010700080107000801070008C0
:1001000001070008010700080107000801070008AF
:10011000010700080107000801070008010700089F
:10012000010700080107000801070008010700088F
:10013000010700080107000801070008010700087F
:10014000010700080107000801070008010700086F
:10015000B91300080107000801070008010700089B
:10016000010700080107000801070008010700084F
:10017000010700080107000801070008010700083F
:10018000010700080107000890B589B000AFF860CA
:10019000B9607A603B607B681C68786B01F0BAFBE1
:1001A00003462046194603F065F80346184603F057
:1001B00027FA0346BB617B685C68786B01F0E0FB63
:1001C00003462046194603F055F80346184603F047
:1001D00017FA0346FB61BB693B61FB697B613B69C5
:1001E000184602F0F3FF03461846396803F042F858
:1001F00003461C467B69184602F0E8FF0346184692
:10020000396B03F037F803462046194602F028FF01
:100210000346184603F0F4F90346BB617B691846B0
:1002200002F0D4FF03461846396803F023F803466A
:100230001C463B69184602F0C9FF03461846396B55
:1002400003F018F803462046194602F00BFF034658
:10025000184603F0D5F90346FB61BB681A68BB6911
:100260001344BB61BB685A68FB691344FB61FB68BC
:100270001A4607F1180393E8030082E80300F868C0
:100280002437BD4690BD00BF80B58AB002AFF8608C
:10029000B9603B601346FB800023FB774FF00003FF
:1002A000BB612EE007F11002BB6A0093BB690193AA
:1002B0001046F968BA683B68FFF766FF07F110025D
:1002C000B7F906301046194600F03EFE0346FB77AC
:1002D000FB7F002B01D0FB7F23E0B86902F07EFB9F
:1002E00002460B461046194611A3D3E9002302F03B
:1002F00017FA02460B461046194602F05DFE034609
:10030000BB61B86902F06AFB02460B46104619460B
:1003100009A3D3E9002302F027FE0346002BC1D135
:10032000FB7F18462037BD4680BD00BFAFF300807D
:100330007B14AE47E17A843F182D4454FB211940C9
:1003400080B58AB002AFF860B9603B601346FB80AD
:100350000023FB764FF00003FB6124E007F110025D
:10036000BB6A0093FB6901931046F968BA683B6861
:10037000FFF70AFFFB7E002B01D0FB7E23E0F8692C
:1003800002F02CFB02460B461046194610A3D3E997
:10039000002302F0C5F902460B461046194602F04A
:1003A0000BFE0346FB61F86902F018FB02460B46A0
:1003B0001046194608A3D3E9002302F0D5FD0346F1
:1003C000002BCBD1FB7E18462037BD4680BD00BF39
:1003D0007B14AE47E17A843F182D4454FB21194029
:1003E00080B58EB002AFF860B9603B601346FB8009
:1003F000002387F82B304FF00003FB6254E0BB680A
:100400001B681846F96B02F02DFE03463B62BB6881
:100410005B681846F96B02F025FE03467B6207F124
:10042000180107F12002BB6B0093FB6A0193084699
:10043000F9683B68FFF7A8FEBB681B681846F96BB4
:1004400002F00EFE03463B62BB685B681846F96B20
:1004500002F006FE03467B6207F1100107F120025D
:10046000BB6B0093FB6A01930846F9683B68FFF792
:100470008BFE97F82B30002B02D097F82B3024E01E
:10048000F86A02F0ABFA02460B461046194612A370
:10049000D3E9002302F044F902460B461046194600
:1004A00002F08AFD0346FB62F86A02F097FA024600
:1004B0000B46104619460AA3D3E9002302F054FD67
:1004C0000346002B9BD197F82B3018463037BD469A
:1004D00080BD00BFAFF300807B14AE47E17A843F5C
:1004E000182D4454FB21194080B58EB002AFF8603E
:1004F000B9607A607B80002387F82F30786802F03B
:100500005BFA02460B461046194663A3D3E9002363
:1005100002F0B8FA02460B46104619464FF00002A8
:100520005F4B02F0D9FB02460B461046194602F01B
:1005300043FD0346BB62B86A01F022FA7862B86AEA
:1005400001F0E8F9386297F83C30184602F034FAC6
:1005500002460B46104619464FF00002514B02F07E
:1005600091FA02460B461046194602F025FD034655
:10057000FB6197F83C30012B55D9B7F93830B3F10E
:10058000FF3F0ED1B7F902207B6A0093FB6901930C
:10059000F868B9683B6AFFF723FF034687F82F30F6
:1005A00072E0BB681B681846F96902F05BFD034600
:1005B0007B61BB685B681846F96902F053FD03462E
:1005C000BB6107F11401B7F902207B6A0093F86858
:1005D0003B6AFFF7B5FE034687F82F3097F82F30B8
:1005E000002B02D097F82F3050E0BB681B681846EC
:1005F000F96902F037FD03467B61BB685B6818460A
:10060000F96902F02FFD0346BB6107F11401B7F948
:1006100002207B6A0093F8683B6AFFF791FE03466D
:1006200087F82F3030E0B7F93830B3F1FF3F0CD105
:10063000B7F902207B6A0093F868B9683B6AFFF754
:1006400023FE034687F82F301EE0B7F902207B6AAD
:100650000093F868B9683B6AFFF772FE034687F8B3
:100660002F3097F82F30002B02D097F82F300DE065
:10067000B7F902207B6A0093F868B9683B6AFFF714
:1006800003FE034687F82F3097F82F30184630378F
:10069000BD4680BDAFF30080182D4454FB210940B6
:1006A000008066400000E03F80B582B000AF0F4B95
:1006B0007B600F4B3B6007E03B681A1D3A607A682D
:1006C000111D796012681A603B680A4A9342F3D39D
:1006D00009480A494FF000028842B8BF40F8042B8D
:1006E000FADB00F04BF80837BD4680BD2C3A000815
:1006F000000000200000002000000020FC2C012051
:1007000080B400AFFEE700BF80B588B002AF194AE1
:1007100007F10C0392E8030083E80300164A3B1D2F
:1007200092E8030083E8030000237B611BE0FB6881
:100730000333FB60BB6818464FF07E5102F090FC1B
:100740000346BB6007F10C013A1D4FF0FF330093E5
:1007500000230193084611467A690023FFF7C4FE7F
:100760007B6905337B617B69B3F5B47FDFDB1837C9
:10077000BD4680BD4C3600085436000880B500AF39
:1007800000F038F900F050FC1F2000F01DFCFFF7CE
:10079000BBFFFEE780B483B000AF78600B46FB7010
:1007A000FB78002B06D00949084B1A6B7B68134372
:1007B0000B6306E00549054B1A6B7B68DB4313406E
:1007C0000B630C37BD465DF8047B70470038024070
:1007D00080B483B000AF78600B46FB70FB78002BD1
:1007E00006D00949084B1A6C7B6813430B6406E07A
:1007F0000549054B1A6C7B68DB4313400B640C37CF
:10080000BD465DF8047B70470038024080B483B079
:1008100000AF78600B46FB70FB78002B06D00949CF
:10082000084B5A6C7B6813434B6406E00549054B43
:100830005A6C7B68DB4313404B640C37BD465DF854
:10084000047B70470038024080B487B000AF786006
:10085000396000237B6100233B610023FB600023A0
:100860007B6176E07B69012202FA03F33B613B681E
:100870001A683B691340FB60FA683B699A4265D18C
:100880007B681A687B695B00194603238B40DB4356
:100890001A407B681A607B681A683B681B791946A6
:1008A0007B695B0001FA03F31A437B681A603B68BB
:1008B0001B79012B03D03B681B79022B2ED17B685F
:1008C0009A687B695B00194603238B40DB431A401F
:1008D0007B689A607B689A683B685B7919467B699C
:1008E0005B0001FA03F31A437B689A607B685A68DD
:1008F0007B699BB2194601238B40DB431A407B681E
:100900005A607B685B683A68927911467A6992B25C
:1009100001FA02F292B21A437B685A607B68DA6885
:100920007B699BB25B00032101FA03F3DB431A40AE
:100930007B68DA607B68DA683B68DB7919467B693B
:100940005B0001FA03F31A437B68DA607B690133C9
:100950007B617B690F2B85D91C37BD465DF8047B15
:10096000704700BF80B485B000AF78600B467B80D5
:1009700013467B700023FB600023BB607B787A8882
:1009800002F0070292009340FB607B88DB089BB279
:1009900018467B88DB089BB21A467B68083253F8FE
:1009A00022207B8803F007039B0019460F238B400E
:1009B000DB4302EA03017B6800F1080243F82210DE
:1009C0007B88DB089BB21A467B68083253F82220EA
:1009D000FB681343BB607B88DB089BB21A467B68CD
:1009E0000832B96843F822101437BD465DF8047B1D
:1009F000704700BF80B500AF114A114B1B6843F030
:100A0000010313600E4B00229A600D4A0C4B1B68C9
:100A100023F0847323F480331360094B094A5A602E
:100A2000074A074B1B6823F480231360044B002202
:100A3000DA6000F00BF8044B4FF000629A6080BD62
:100A4000003802401030002400ED00E080B483B094
:100A500000AF00237B6000233B60354A344B1B68AA
:100A600043F480331360324B1B6803F400333B6064
:100A70007B6801337B603B68002B03D17B68B3F557
:100A8000A06FF0D12A4B1B6803F40033002B02D077
:100A900001233B6001E000233B603B68012B42D116
:100AA000234A234B1B6C43F080531364214A214B90
:100AB0001B6843F4804313601D4A1D4B9B68936081
:100AC0001B4A1B4B9B6843F400439360184A184B26
:100AD0009B6843F4A0539360154B174A5A60144A1D
:100AE000134B1B6843F08073136000BF104B1B68EF
:100AF00003F00073002BF9D0104B40F205621A602E
:100B00000B4A0B4B9B6823F003039360084A084B86
:100B10009B6843F00203936000BF054B9B6803F0A2
:100B20000C03082BF9D10C37BD465DF8047B7047E8
:100B3000003802400070004008544007003C02406A
:100B400080B483B000AF78607B681B6823F001023B
:100B50007B681A607B6800221A607B6800225A60FA
:100B60007B6800229A607B680022DA607B68002242
:100B70001A617B6821225A617B68454A934203D1FE
:100B8000444B3D229A607EE07B68434A934204D105
:100B9000404B4FF474629A6075E07B683F4A934221
:100BA00004D13C4B4FF474129A606CE07B683C4A71
:100BB000934204D1374B4FF074629A6063E07B68D4
:100BC000384A934203D1334B374ADA605BE07B68A3
:100BD000364A934203D12F4B354ADA6053E07B68A3
:100BE000344A934203D12B4B334ADA604BE07B68A3
:100BF000324A934204D1274B4FF03D52DA6042E033
:100C00007B682F4A934203D12E4B3D229A603AE0F3
:100C10007B682D4A934204D12A4B4FF474629A6048
:100C200031E07B68294A934204D1264B4FF4741279
:100C30009A6028E07B68264A934204D1214B4FF00A
:100C400074629A601FE07B68224A934203D11D4B75
:100C5000154ADA6017E07B681F4A934203D1194BAB
:100C6000134ADA600FE07B681C4A934203D1154BAC
:100C7000114ADA6007E07B68194A934203D1114BAD
:100C80004FF03D52DA600C37BD465DF8047B70478B
:100C90001060024000600240286002404060024054
:100CA00058600240706002403D00002088600240B1
:100CB000400F0020A060024000003D20B8600240CC
:100CC0001064024000640240286402404064024014
:100CD000586402407064024088640240A06402408C
:100CE000B864024080B485B000AF786039600023FA
:100CF000FB607B681B68FB60FA68244B1340FB6059
:100D00003B681A683B68DB681A433B685B691A43B7
:100D10003B689B691A433B68DB691A433B681B6A63
:100D20001A433B685B6A1A433B689B6A1A433B68F9
:100D30005B6B1A433B689B6B1343FA681343FB607E
:100D40007B68FA681A607B685B69FB60FB6823F06C
:100D50000703FB603B68DA6A3B681B6B1343FA6866
:100D60001343FB607B68FA685A613B681A697B68C9
:100D70005A603B685A687B689A603B689A687B68EF
:100D8000DA601437BD465DF8047B70473F801CF085
:100D900080B483B000AF78600B46FB70FB78002B0B
:100DA00006D07B681B6843F001027B681A6005E08F
:100DB0007B681B6823F001027B681A600C37BD4614
:100DC0005DF8047B704700BF80B485B000AFF86069
:100DD000B9601346FB71BB6803F08003002B0FD092
:100DE000FB79002B06D0FB685B6943F08002FB684F
:100DF0005A6105E0FB685B6923F08002FB685A6179
:100E0000BB68802B14D0FB79002B08D0FB681A68D4
:100E1000BB6803F01E031A43FB681A6008E0FB6816
:100E20001A68BB6803F01E03DB431A40FB681A60B4
:100E30001437BD465DF8047B704700BF80B487B0AF
:100E400000AF786039600023FB750023FB6000234E
:100E5000BB607B68224A934202D8224B3B6101E08F
:100E6000214B3B613B6823F0F02323F0C313002B9D
:100E70000AD03B68DB0A03F01E03FB607B681A683C
:100E8000FB681340BB6004E07B685B6903F0800390
:100E9000BB603B6803F00053002B03D03B695B68E9
:100EA000FB6002E03B691B68FB60FB6823F0F023FA
:100EB00023F08213FB60FA683B681340002B05D0D7
:100EC000BB68002B02D00123FB7501E00023FB75FA
:100ED000FB7D18461C37BD465DF8047B704700BF9C
:100EE0000F640240006002400064024080B485B09C
:100EF00000AF786039607B68104A934202D8104B8B
:100F0000FB6001E00F4BFB603B6803F00053002BDC
:100F100007D03B6823F0F02323F08213FA68D360F4
:100F200006E03B6823F0F02323F08213FA68936015
:100F30001437BD465DF8047B704700BF0F64024064
:100F4000006002400064024080B582B000AF78606B
:100F50000B467B807B685A6813469B0013449B01B9
:100F60001A447B681B6813447A88D1B2084AD1546A
:100F7000786800F00FF803461A46B7F9023093423A
:100F800001D0012300E0002318460837BD4680BD8C
:100F90000C00002080B483B000AF78607B685A6892
:100FA00013469B0013449B011A447B681B6813443F
:100FB000044AD35C9BB21BB218460C37BD465DF8A1
:100FC000047B70470C00002080B586B000AF03465C
:100FD000FB800023FB751FE00023BB8215E0BB8A6A
:100FE000BB60FB7DFB6007F10802B7F906301046D5
:100FF0001946FFF7A9FF0346FB74FB7C002B01D0C9
:10100000FB7C0DE0BB8A0133BB82BB8AB3F5A07FBA
:10101000E5D3FB7D0133FB75FB7DEF2BDCD9FB7C3E
:1010200018461837BD4680BD80B582B000AF1B4B57
:1010300000221A80194B00225A60184B00229A6035
:101040000023BB8017E00023FB800DE0BA88134625
:101050009B0013449B011A44FB881344104A00214F
:10106000D154FB880133FB80FB88B3F5A07FEDD919
:10107000BB880133BB80BB88EF2BE4D900F014F8A8
:1010800000F066F800F0F4F800F0C6F8054B1B68B5
:10109000024A93600837BD4680BD00BF00000020B3
:1010A0000C0000208864024080B582B000AF1020A0
:1010B0000121FFF76FFB4FF47F433B6001233B713E
:1010C0000023BB710123FB7103237B713B461E4848
:1010D0001946FFF7B9FB1C4B4FF47F425A8302209D
:1010E0000121FFF757FB4FF400633B6002233B7184
:1010F00003237B710023BB710123FB713B46134823
:101100001946FFF7A1FB11480B210122FFF72AFC2A
:1011100002200121FFF73EFB4FF480533B60012387
:101120003B710023BB710123FB7103237B713B46A1
:1011300006481946FFF788FB044B4FF480521A8388
:101140000837BD4680BD00BF0010024000040240C9
:1011500080B588B000AF01200121FFF757FB0B23BA
:10116000BB610023BB820023BB830023FB8207F10A
:1011700014032848194600F0A5F901200121FFF7C2
:1011800027FB40F66B23BB610023BB820023BB839C
:101190000023FB8207F114034FF08040194600F052
:1011A00091F960233B8001237B804FF4D273BB60B5
:1011B0000223BB813B464FF08040194600F02CFAD9
:1011C0004FF08040082100F013FB60233B80012397
:1011D0007B804FF4A073BB600223BB813B464FF082
:1011E0008040194600F09EFA4FF08040082100F040
:1011F0001BFB0848012100F0CFF94FF0804001218E
:1012000000F0CAF94FF08040012100F0E5F92037E5
:10121000BD4680BD0000014080B582B000AF1348DC
:1012200010210122FFF7D0FD44233B7100237B7185
:101230000023BB710123FB713B1D184600F0E2F84F
:101240004FF080400821012200F00CFB1C233B7171
:1012500000237B710023BB710123FB713B1D1846EA
:1012600000F0D0F80837BD4680BD00BF886402405A
:1012700080B590B000AF4FF480000121FFF78AFAEB
:101280001B480021FFF784FD1948FFF759FC4FF078
:1012900040637B60174BBB60174BFB6040233B6197
:1012A00040F241137B610023BB614FF48063FB611B
:1012B00000233B6200237B620023BB624FF4403378
:1012C000FB6200233B6301237B630023BB6300239A
:1012D000FB633B1D06481946FFF704FD07484FF422
:1012E0008071012200F0F2FA4037BD4680BD00BF98
:1012F00088640240151002400C00002000000140EC
:1013000080B500AF4FF08040082100F0CFFA254BA8
:101310001B8801339AB2234B1A80224B1B88B3F5EA
:10132000037F05D91F4B00221A801F4A1D4B5A60AC
:101330001C4B1B88012B04D81C4B4FF480525A8342
:1013400003E01A4B4FF480521A83164B1B88232B51
:1013500027D9144B1B8840F20222934221D8144A09
:10136000104B9B681360124A0E4B5B68D360114AA6
:10137000104B1B889BB243F001039BB213800C4AB5
:101380000B4B1B6843F001031360064B1B8803F0F3
:101390000103002B05D0034B5B6803F24113014AA4
:1013A000536080BD000000200C00002000040240BB
:1013B000886402400000014080B500AF0D480E492E
:1013C000FFF73CFD0346002B12D00A480A49FFF7FD
:1013D0008DFD0A4A094B1B889BB223F001039BB287
:1013E0001380044B00221A60054B4FF47F425A834E
:1013F00080BD00BF886402400088002000000140DA
:101400000010024080B485B000AF78600023FB7309
:101410000023BB730F237B737B68DB78002B38D0F2
:10142000264BDB68DB4303F4E0631B0AFB73FB7BA7
:10143000C3F10403BB737A7BFB7B42FA03F37B7338
:101440007B685B781A46BB7B02FA03F3FB737B680D
:101450009A787B7B1340DAB2FB7B1343FB73FB7BF5
:101460001B01FB73164A7B681B781344FA7B83F8D5
:101470000023134A7B681B785B09DBB218467B6844
:101480001B7803F01F03012101FA03F342F8203017
:101490000FE00B497B681B785B09DBB218467B6861
:1014A0001B7803F01F0301229A4000F1200341F84A
:1014B00023201437BD465DF8047B704700ED00E043
:1014C00000E100E080B485B000AF786039600023AF
:1014D000FB817B681B88FB817B68284A934213D081
:1014E0007B68274A93420FD07B68B3F1804F0BD0C3
:1014F0007B68244A934207D07B68234A934203D0F7
:101500007B68224A934208D1FB8923F07003FB8158
:101510003B685A88FB891343FB817B681C4A9342D2
:101520000CD07B681B4A934208D0FB8923F440739C
:10153000FB813B681A89FB891343FB817B68FA892D
:101540001A803B685A687B68DA623B681A887B6855
:101550001A857B68094A934203D07B68084A934204
:1015600004D13B689B7A9AB27B681A867B68012219
:101570009A821437BD465DF8047B70470000014035
:10158000000401400004004000080040000C00403E
:10159000001000400014004080B483B000AF7860B9
:1015A0000B46FB70FB78002B08D07B681B889BB236
:1015B00043F080039AB27B681A8007E07B681B883F
:1015C0009BB223F080039AB27B681A800C37BD4629
:1015D0005DF8047B704700BF80B483B000AF7860D3
:1015E0000B46FB70FB78002B08D07B681B889BB2F6
:1015F00043F001039AB27B681A8007E07B681B887E
:101600009BB223F001039AB27B681A800C37BD4667
:101610005DF8047B704700BF80B485B000AF786090
:10162000396000237B810023FB810023BB817B6821
:101630001B8C9BB223F480739AB27B681A847B68FC
:101640001B8CFB817B689B88BB817B689B8B7B8130
:101650007B8923F070037B817B8923F003037B81EB
:101660003B681A887B8913437B81FB8923F40073D1
:10167000FB813B689B891B029AB2FB891343FB8168
:101680003B685B881B029AB2FB891343FB817B6832
:10169000224A934203D07B68214A93422BD1FB8993
:1016A00023F40063FB813B68DB891B029AB2FB8950
:1016B0001343FB81FB8923F48063FB813B689B8898
:1016C0001B029AB2FB891343FB81BB8923F480532D
:1016D000BB81BB8923F40053BB813B681B8A1B0180
:1016E0009AB2BB891343BB813B685B8A1B019AB2E8
:1016F000BB891343BB817B68BA899A807B687A89EE
:101700009A833B689A687B68DA637B68FA891A84F3
:101710001437BD465DF8047B704700BF00000140F0
:101720000004014080B485B000AF786039600023C8
:10173000BB8100237B810023FB817B681B8C9BB2D8
:1017400023F480539AB27B681A847B681B8C7B815C
:101750007B689B88FB817B689B8BBB81BB8923F467
:10176000E043BB81BB8923F44073BB813B681B888A
:101770001B029AB2BB891343BB817B8923F40053BC
:101780007B813B689B891B039AB27B8913437B81D6
:101790003B685B881B039AB27B8913437B817B6820
:1017A000114A934203D07B68104A93420AD1FB89C5
:1017B00023F48043FB813B681B8A9B019AB2FB891F
:1017C0001343FB817B68FA899A807B68BA899A8384
:1017D0003B689A687B681A647B687A891A84143734
:1017E000BD465DF8047B70470000014000040140E5
:1017F00080B485B000AF78600B467B800023FB810E
:101800007B689B8BFB81FB8923F00803FB81FA89B2
:101810007B881343FB817B68FA899A831437BD4622
:101820005DF8047B704700BF80B485B000AF78607E
:101830000B467B800023FB817B689B8BFB81FB89B4
:1018400023F40063FB817B881B029AB2FB8913435C
:10185000FB817B68FA899A831437BD465DF8047B67
:10186000704700BF80B483B000AF78600B467B80C8
:1018700013467B707B78002B08D07B689B899AB2DB
:101880007B8813439AB27B689A8109E07B689B89C5
:101890009AB27B88DB439BB213409AB27B689A81F1
:1018A0000C37BD465DF8047B704700BF80B483B041
:1018B00000AF78600B467B807B88DB439AB27B6805
:1018C0001A820C37BD465DF8047B704780B483B044
:1018D00000AF78600B467B8013467B707B78002BD3
:1018E00008D07B689B899AB27B8813439AB27B6845
:1018F0009A8109E07B689B899AB27B88DB439BB223
:1019000013409AB27B689A810C37BD465DF8047B20
:10191000704700BF00B5194A20F00043934283B0DE
:10192000014617DDB3F1FF4F04DB01F099FB03B073
:101930005DF804FB694600F061F800F00302012A3B
:101940000098019911D0022A0AD09AB1012200F020
:10195000C3FDECE7002100F0C3F903B05DF804FB20
:1019600000F0BEF900F10040E1E700F0B5FD00F144
:101970000040DCE700F0B4F9D9E700BFD80F493FD9
:1019800000B51D4A20F00043934283B0014618DDA4
:10199000B3F1FF4F04DB01F063FB03B05DF804FB20
:1019A000694600F02BF800F00300012818D0022847
:1019B0000ED0D0B10098019900F092F900F10040EA
:1019C000EBE70021002200F087FD03B05DF804FB87
:1019D00000980199012200F07FFD00F10040DCE752
:1019E0000098019900F07CF9D7E70098019901224D
:1019F00000F072FDD1E700BFD80F493F2DE9F04F4D
:101A0000AA4A20F00044944289B007460D4664DD9E
:101A1000A74A94421CDC0028A64940F3EC8001F060
:101A20001FFBA54B24F00F049C42064664D0A3493B
:101A300001F016FB01462860304601F011FB9F497A
:101A400001F00EFB01236860184609B0BDE8F08F75
:101A50009B4A944262DDB4F1FF4F46DAE615863EBA
:101A6000A4EBC654204601F0CBFD01F0AFFB0346CA
:101A700001462046059301F0F3FA4FF0874101F04B
:101A8000F9FB804601F0BCFD01F0A0FB01460446D5
:101A90004046069401F0E4FA4FF0874101F0EAFB7A
:101AA0000021079001F07AFD002800F0C580204653
:101AB000002101F073FD002814BF0123022302223C
:101AC000804900920191324605A8294600F0CCF9E0
:101AD000002FC0F2A780034603E000222860002305
:101AE0004A60184609B0BDE8F08F014601F0B8FA27
:101AF000002368602860F4E7734901F0B1FA734984
:101B0000044601F0ADFA01462860204601F0A8FA2B
:101B10006E4901F0A5FA01236860E2E700F052FD8A
:101B20006B49804601F0A6FB4FF07C5101F09AFA18
:101B300001F066FD064601F049FB5E49834601F06F
:101B400099FB0146404601F08BFA5C4981465846B4
:101B500001F090FB1F2E8246484619DC5D4A711E3B
:101B600024F0FF0352F82120934211D0514601F096
:101B700077FA8046C5F800804146484601F070FA81
:101B8000514601F06DFA002F686057DB3346A8E735
:101B9000514601F065FAE215C0F3C753D31A082B7A
:101BA0008046E7DD48490392584601F063FB8046D2
:101BB0004146484601F054FA04462146484601F0A1
:101BC0004FFA414601F04CFA40498046584601F030
:101BD00051FB414601F044FA82465146204601F04D
:101BE0003FFA039AC0F3C753D21A192A804641DC40
:101BF0002860A146C0E701F035FA2F4B24F00F040E
:101C00009C42064623D02D4901F02CFA014628605B
:101C1000304601F025FA294901F024FA4FF0FF334C
:101C200068605EE795E80C0002F1004103F10042B4
:101C3000296043426A6054E7032340E708F1004803
:101C400000F10040C5F800806860734249E71E4912
:101C500001F008FA1D49044601F004FA0146286023
:101C6000204601F0FDF9194901F0FCF94FF0FF336E
:101C7000686036E71849584601F0FCFA804641464C
:101C8000204601F0EDF981464946204601F0E8F989
:101C9000414601F0E5F911490446584601F0EAFAD7
:101CA000214601F0DDF9824648465FE7D80F493FFB
:101CB000E3CB1640800FC93FD00FC93F43443537AF
:101CC000800F4943DC3600080044353708A3852ED1
:101CD00084F9223F5C36000800A3852E32318D2422
:101CE0002DE9F84320F00044B4F1485F06460F4662
:101CF00049DA01F085FC002800F09D80314630462D
:101D000001F0B8FA4E49054601F0B4FA4D4901F028
:101D1000A9F9294601F0AEFA4B4901F0A1F929468B
:101D200001F0A8FA494901F09DF9294601F0A2FA0B
:101D3000474901F095F9294601F09CFA454901F01F
:101D400091F9294601F096FA804628464FF07C51D9
:101D500001F090FA41460446284601F08BFA3946D4
:101D60000546304601F086FA0146284601F078F92A
:101D70000146204601F074F901464FF07E5001F013
:101D80006FF9BDE8F883014601F074FA2C49054665
:101D900001F070FA2B4901F065F9294601F06AFA61
:101DA000294901F05DF9294601F064FA274901F05B
:101DB00059F9294601F05EFA254901F051F9294601
:101DC00001F058FA234901F04DF9294601F052FA81
:101DD000214B9C428046B8DD204B9C4227DC04F11D
:101DE0007F4421464FF07E5001F03AF981464FF092
:101DF0007C51284601F03EFA214601F031F9414676
:101E00000446284601F036FA39460546304601F0C8
:101E100031FA0146284601F023F90146204601F037
:101E20001FF90146484601F01BF9BDE8F883DFF8C9
:101E300034900B4CDBE74FF07E50BDE8F88300BFD9
:101E40004ED747ADF6740F317CF29334010DD03785
:101E5000610BB63AABAA2A3D9999993E0000483FDA
:101E60000000903E0000383F2DE9F04FDFB0BC4C41
:101E70000A93013B0193D31E48BF131D689D08912F
:101E8000DB1023EAE37354F825400C931946DB4337
:101E900002EBC3030794019A0693079B0390D4189F
:101EA000A1EB020515D42C44013421AE699F08E052
:101EB00057F8250001F08AF90135A54246F8040FCC
:101EC00007D0002DF4DA01350020A54246F8040FB2
:101ED000F7D1079B002B2CDB079B0A9A1946019B25
:101EE00001EB0208C2EB827722AA02EB830502EB28
:101EF0008808BF0049AE019B002BC0F2F381039B11
:101F000005EB0709A3F1040B2C464FF0000A54F827
:101F100004095BF8041F01F0ADF90146504601F0D9
:101F2000A1F84C458246F2D10435454546F804AF48
:101F3000E1D1079D05F18043013B9B001A1D0EA9CD
:101F40000A440B440D920B93AB005EA91A46029310
:101F5000CB18002D53F8508C20DD4AAFBC180DAEC5
:101F60004FF06E51404601F085F901F049FB01F058
:101F70002DF94FF08741814601F07CF9014640463A
:101F800001F06EF801F03CFB54F8041D46F8040F14
:101F9000484601F067F8BC428046E1D1069E4046C3
:101FA000314600F059FB4FF07851044601F062F9D8
:101FB00000F00CFB4FF0824101F05CF90146204635
:101FC00001F04EF8044601F01BFB074601F0FEF855
:101FD0000146204601F044F8002E8046344640F386
:101FE0006981691E0EABC6F1080253F8213043FA2D
:101FF00002F000FA02F60EAA9E1BC4F1070342F893
:10200000216007441E41002E2FDD002D07F101073E
:1020100040F3F381002214460DA907E0C3F5807058
:102020000BB108600124013295420BDD51F8043FE9
:10203000002CF3D00132C3F1FF0395420B604FF047
:102040000104F3DC069B002B0DDD012B00F0398130
:10205000022B08D16A1E0EAB0EA953F8223003F0F2
:102060003F0341F82230022E7CD04046002101F08F
:1020700095FA002800F09080079B6C1EA3420DDCAF
:10208000029B0D980EAA1344002253F8041D8342AC
:1020900042EA0102F9D1002A40F09881079B0EAA7A
:1020A000013B52F82330002B40F0A5810B9A01230D
:1020B00052F8041D01330029FAD0EB181A4609938F
:1020C0006B1C934241DC0C9A9E180A9B099A05EB03
:1020D000030B06F18046551B699A013E02EB86060A
:1020E000AA004FEA8B03049222AA02EB030905938C
:1020F000029B4AAA02EB0308002556F8040F01F0E0
:1021000065F8019B49F8040B002B20DB029A059B24
:10211000AC18EB1822AAD718039B4FF0000B1444FD
:10212000A3F1040A57F804095AF8041F01F0A2F8B1
:102130000146584600F096FFA7428346F2D1049B21
:1021400048F804BF04359D42D7D1099DFCE6049BA5
:1021500004354FF0000B9D4248F804BFCDD1F4E7A1
:10216000F439000841464FF07E5000F079FF804678
:10217000002C3FF47AAF06994FF07E5000F06CFAD5
:102180000146404600F06CFF80464046002101F0C9
:1021900005FA00287FF470AF069B0297594240462B
:1021A00000F05AFA4FF08741044601F015FA002872
:1021B00000F087814FF06E51204601F05BF801F08E
:1021C0001FFA01F003F84FF08741074601F052F87B
:1021D0000146204600F044FF01F012FA0EAB6C1CE1
:1021E00043F82500384601F00BFA069B08330693A6
:1021F0000EAB43F8240006994FF07E5000F02CFA05
:10220000002C0746C0F2CB80631C9D0001930EABEF
:1022100003EB050A4AAB03EB05095AF8040D00F07D
:10222000D5FF394601F026F84FF06E5149F8040DFC
:10223000384601F01FF80EAB9A450746EDD1083D30
:102240004AABDDF81CA0DDF804B0039603EB0509EA
:1022500000270494BAF1000FC0F29E80002FC0F254
:102260009B809C4E4FF000084C46002501E0BD428B
:102270000DDC54F8041F56F8040B00F0FBFF014678
:10228000404600F0EFFE0135AA458046EFDA5EAB2E
:1022900003EB870301375F45A9F1040943F8A08CDC
:1022A000D8D1689B039E049C032B58D8DFE803F029
:1022B0005D3232A70FD16B1E0EAA52F82360361280
:1022C000A1E66A1E0EAB0EA953F8223003F07F037D
:1022D00041F82230C7E64FF07C5101F07DF950B94A
:1022E0000646C2E604354FF0000A454546F804AFFD
:1022F0007FF401AE1DE6002D07F10107C8BF0226DD
:102300003FF788AE41464FF07E5000F0A9FE02260E
:102310008046AAE6019B36AD05EB8308002058F8FD
:10232000041D00F09FFEA845F9D1002E41D0089A67
:1023300000F1004301461360369800F091FE002C36
:1023400009DD36AF0125013557F8041F00F08AFE7C
:10235000AC42F8DA0EB100F10040089B5860029BD5
:1023600003F007005FB0BDE8F08F019B36AA0020A4
:1023700002EB8308013C58F8041D00F073FE631C57
:10238000F8D10EB100F10040089B1860029B03F0E9
:1023900007005FB0BDE8F08F4FF0000877E7689B5B
:1023A000032BDCD8DFE803F0100202870020002EA8
:1023B000BDD1089B01461860369800F051FE002CF4
:1023C000BFDC089B5860CAE70020DAE70EAB069A2C
:1023D00053F824300297083A0692002B7FF40BAF93
:1023E0000EAB03EB840353F8041D013C083A0029AB
:1023F000F9D00692FFE601235FE6002422E6002CD6
:1024000059DDA5005EAB2B440DF1D80853F8A09C14
:1024100008EB050757F804BD4846594600F022FE70
:1024200082465146584600F01BFE0146484600F0E1
:1024300019FE4745D1467860C7F800A0EAD1012CC3
:1024400039DD5EAB2B4408EB050753F8A04C0DF1CA
:10245000DC0B57F804AD2146504600F003FE8146E0
:102460004946504600F0FCFD214600F0FBFD5F456B
:102470004C467860C7F80090EBD1043508EB0504B2
:10248000002038AD54F8041D00F0ECFDAC42F9D149
:10249000A6B1369A379B00F1004002F1004203F1E9
:1024A0000043089C6360029BA06003F00700226069
:1024B0005FB0BDE8F08F0020002EEAD1369A379B3E
:1024C000EFE7204601F09CF80EAB2C4643F82500C0
:1024D00091E600BF003A00082DE9F84320F00043E0
:1024E000B3F1485F04460F46904603DA01F088F8DE
:1024F000002857D02146204600F0BCFE2146054664
:1025000000F0B8FE29490646284600F0B3FE2849E7
:1025100000F0A6FD294600F0ADFE264900F0A2FD20
:10252000294600F0A7FE244900F09AFD294600F054
:10253000A1FE224900F096FD8146B8F1000F22D09D
:1025400038464FF07C5100F095FE494680463046B3
:1025500000F090FE0146404600F082FD294600F062
:1025600089FE394600F07CFD15490546304600F0ED
:1025700081FE0146284600F075FD0146204600F028
:102580006FFDBDE8F8834946284600F073FE0C490C
:1025900000F066FD314600F06DFE214600F062FD60
:1025A000BDE8F8832046BDE8F88300BFD3C92E2FCD
:1025B000342FD7321BEF3836010D50398988083C4B
:1025C000ABAA2A3E20F00040704700BF2DE9F04141
:1025D00020F00047FC0D7F3C162C054613DC002C38
:1025E00080461BDB194F2741074214D0184900F0E1
:1025F00039FD002100F0FAFF68B1002D1BDB28EA4D
:102600000700BDE8F081B7F1FF4F04D3014600F0A9
:1026100029FDBDE8F0812846BDE8F0810C4900F0B5
:1026200021FD002100F0E2FF0028F4D0002D07DB9F
:102630000020BDE8F0814FF4000323419844DEE719
:10264000002FE8D00348BDE8F08100BFFFFF7F0006
:10265000CAF24971000080BF30F0004238B503462D
:10266000044615D0B2F1FF4F0ED2B2F5000F0D4661
:102670000FD3D20D2A44FE2A2EDC002A1DDD24F0C1
:10268000FF4444EAC25038BD014600F0EBFC38BDBF
:1026900038BD4FF0984100F0EDFD184A95420346D1
:1026A00007DBC0F3C7520446193AE3E7144800F0C9
:1026B0002BF8134900F0DEFD38BD12F1160F13DAC6
:1026C0004CF2503295421946F0DD0E4800F01CF8ED
:1026D0000C4900F0CFFD38BD19460A4800F014F847
:1026E000084900F0C7FD38BD193224F0FF4040EA28
:1026F000C2504FF04C5100F0BDFD38BDB03CFFFF63
:102700006042A20DCAF2497101F0004120F0004080
:102710000843704781F0004102E000BF83F00043AE
:1027200030B54FEA41044FEA430594EA050F08BF6C
:1027300090EA020F1FBF54EA000C55EA020C7FEA30
:10274000645C7FEA655C00F0E2804FEA5454D4EBAD
:102750005555B8BF6D420CDD2C4480EA020281EA77
:10276000030382EA000083EA010180EA020281EAAF
:102770000303362D88BF30BD11F0004F4FEA013101
:102780004FF4801C4CEA113102D0404261EB410110
:1027900013F0004F4FEA03334CEA133302D0524296
:1027A00063EB430394EA050F00F0A780A4F1010452
:1027B000D5F1200E0DDB02FA0EFC22FA05F280188C
:1027C00041F1000103FA0EF2801843FA05F3594172
:1027D0000EE0A5F120050EF1200E012A03FA0EFCF1
:1027E00028BF4CF0020C43FA05F3C01851EBE3711B
:1027F00001F0004507D54FF0000EDCF1000C7EEB38
:1028000000006EEB0101B1F5801F1BD3B1F5001F75
:102810000CD349085FEA30004FEA3C0C04F1010494
:102820004FEA445212F5800F80F09A80BCF1004FBD
:1028300008BF5FEA500C50F1000041EB045141EA3F
:10284000050130BD5FEA4C0C404141EB010111F440
:10285000801FA4F10104E9D191F0000F04BF0146EB
:102860000020B1FA81F308BF2033A3F10B03B3F1C9
:1028700020020CDA0C3208DD02F1140CC2F10C0259
:1028800001FA0CF021FA02F10CE002F11402D8BFB7
:10289000C2F1200C01FA02F120FA0CFCDCBF41EA83
:1028A0000C019040E41AA2BF01EB0451294330BD52
:1028B0006FEA04041F3C1CDA0C340EDC04F114042F
:1028C000C4F1200220FA04F001FA02F340EA030006
:1028D00021FA04F345EA030130BDC4F10C04C4F14C
:1028E000200220FA02F001FA04F340EA030029462C
:1028F00030BD21FA04F0294630BD94F0000F83F476
:10290000801306BF81F480110134013D4EE77FEA58
:10291000645C18BF7FEA655C29D094EA050F08BFA4
:1029200090EA020F05D054EA000C04BF1946104685
:1029300030BD91EA030F1EBF0021002030BD5FEAC9
:10294000545C05D14000494128BF41F0004130BDF1
:1029500014F580043CBF01F5801130BD01F0004545
:1029600045F0FE4141F470014FF0000030BD7FEAB8
:10297000645C1ABF194610467FEA655C1CBF0B46B3
:10298000024650EA013406BF52EA033591EA030FCA
:1029900041F4002130BD00BF90F0000F04BF0021C2
:1029A000704730B54FF4806404F132044FF00005F5
:1029B0004FF0000150E700BF90F0000F04BF00216E
:1029C000704730B54FF4806404F1320410F00045D4
:1029D00048BF40424FF000013EE700BF42004FEACF
:1029E000E2014FEA31014FEA02701FBF12F07F434C
:1029F00093F07F4F81F06051704792F0000F14BF49
:102A000093F07F4F704730B54FF4607401F000458C
:102A100021F0004120E700BF50EA010208BF7047E3
:102A200030B54FF000050AE050EA010208BF7047D8
:102A300030B511F0004502D5404261EB41014FF441
:102A4000806404F132045FEA915C3FF4DCAE4FF045
:102A500003025FEADC0C18BF03325FEADC0C18BF2C
:102A6000033202EBDC02C2F1200300FA03FC20FA7D
:102A700002F001FA03FE40EA0E0021FA02F11444CA
:102A8000C1E600BF70B54FF0FF0C4CF4E06C1CEADF
:102A900011541DBF1CEA135594EA0C0F95EA0C0F54
:102AA00000F0DEF82C4481EA030621EA4C5123EAC7
:102AB0004C5350EA013518BF52EA033541F48011F6
:102AC00043F4801338D0A0FB02CE4FF00005E1FBA9
:102AD00002E506F00042E0FB03E54FF00006E1FBF3
:102AE00003569CF0000F18BF4EF0010EA4F1FF0436
:102AF000B6F5007F64F5407404D25FEA4E0E6D4176
:102B000046EB060642EAC62141EA55514FEAC52086
:102B100040EA5E504FEACE2EB4F1FD0C88BFBCF502
:102B2000E06F1ED8BEF1004F08BF5FEA500E50F1B3
:102B3000000041EB045170BD06F0004646EA010179
:102B400040EA020081EA0301B4EB5C04C2BFD4EBAB
:102B50000C0541EA045170BD41F480114FF0000EA4
:102B6000013C00F3AB8014F1360FDEBF002001F012
:102B7000004170BDC4F10004203C35DA0C341BDC8C
:102B800004F11404C4F1200500FA05F320FA04F05E
:102B900001FA05F240EA020001F0004221F0004192
:102BA00010EBD37021FA04F642EB06015EEA430E05
:102BB00008BF20EAD37070BDC4F10C04C4F1200535
:102BC00000FA04F320FA05F001FA04F240EA0200E8
:102BD00001F0004110EBD37041F100015EEA430EB9
:102BE00008BF20EAD37070BDC4F1200500FA05F2D9
:102BF0004EEA020E20FA04F301FA05F243EA020358
:102C000021FA04F001F0004121FA04F220EA020066
:102C100000EBD3705EEA430E08BF20EAD37070BDAC
:102C200094F0000F0FD101F00046400041EB01018C
:102C300011F4801F08BF013CF7D041EA060195F06E
:102C4000000F18BF704703F00046520043EB030328
:102C500013F4801F08BF013DF7D043EA0603704715
:102C600094EA0C0F0CEA135518BF95EA0C0F0CD020
:102C700050EA410618BF52EA4306D1D181EA030166
:102C800001F000414FF0000070BD50EA410606BF60
:102C90001046194652EA430619D094EA0C0F02D1A5
:102CA00050EA013613D195EA0C0F05D152EA0336EA
:102CB0001CBF104619460AD181EA030101F0004108
:102CC00041F0FE4141F470014FF0000070BD41F051
:102CD000FE4141F4780170BD70B54FF0FF0C4CF42B
:102CE000E06C1CEA11541DBF1CEA135594EA0C0F4A
:102CF00095EA0C0F00F0A7F8A4EB050481EA030E97
:102D000052EA03354FEA013100F088804FEA03337D
:102D10004FF0805545EA131343EA12634FEA02224B
:102D200045EA111545EA10654FEA00260EF000410C
:102D30009D4208BF964244F1FD0404F5407402D25E
:102D40005B084FEA3202B61A65EB03055B084FEAEF
:102D500032024FF480104FF4002CB6EB020E75EBEC
:102D6000030E22BFB61A754640EA0C005B084FEA14
:102D70003202B6EB020E75EB030E22BFB61A754691
:102D800040EA5C005B084FEA3202B6EB020E75EBDC
:102D9000030E22BFB61A754640EA9C005B084FEA54
:102DA0003202B6EB020E75EB030E22BFB61A754661
:102DB00040EADC0055EA060E18D04FEA051545EA50
:102DC00016754FEA06164FEAC30343EA52734FEAF9
:102DD000C2025FEA1C1CC0D111F4801F0BD141EA72
:102DE00000014FF000004FF0004CB6E711F4801FD7
:102DF00004BF01430020B4F1FD0C88BFBCF5E06FB7
:102E00003FF6AFAEB5EB030C04BFB6EB020C5FEAC6
:102E1000500C50F1000041EB045170BD0EF0004E1B
:102E20004EEA113114EB5C04C2BFD4EB0C0541EA4D
:102E3000045170BD41F480114FF0000E013C90E64A
:102E400045EA060E8DE60CEA135594EA0C0F08BF0E
:102E500095EA0C0F3FF43BAF94EA0C0F0AD150EA0D
:102E600001347FF434AF95EA0C0F7FF425AF1046A0
:102E700019462CE795EA0C0F06D152EA03353FF4C8
:102E8000FDAE1046194622E750EA410618BF52EA45
:102E900043067FF4C5AE50EA41047FF40DAF52EA19
:102EA00043057FF4EBAE12E74FF0FF3C06E000BFB6
:102EB0004FF0010C02E000BF4FF0010C4DF804CDC3
:102EC0004FEA410C7FEA6C5C4FEA430C18BF7FEA83
:102ED0006C5C1BD001B050EA410C0CBF52EA430CB1
:102EE00091EA030F02BF90EA020F0020704710F131
:102EF000000F91EA030F58BF994208BF90422CBFC0
:102F0000D8176FEAE37040F0010070474FEA410CB8
:102F10007FEA6C5C02D150EA013C07D14FEA430CD6
:102F20007FEA6C5CD6D152EA033CD3D05DF8040B47
:102F3000704700BF8446104662468C461946634679
:102F400000E000BF01B5FFF7B7FF002848BF10F150
:102F5000000F01BD4DF808EDFFF7F4FF0CBF012095
:102F600000205DF808FB00BF4DF808EDFFF7EAFF11
:102F700034BF012000205DF808FB00BF4DF808EDCC
:102F8000FFF7E0FF94BF012000205DF808FB00BFC1
:102F90004DF808EDFFF7CEFF94BF012000205DF84B
:102FA00008FB00BF4DF808EDFFF7C4FF34BF012058
:102FB00000205DF808FB00BF4FEA4102B2F1E04398
:102FC00024BFB3F5001CDCF1FE5C0DD901F0004C10
:102FD0004FEAC0024CEA5070B2F1004F40EB830060
:102FE00008BF20F00100704711F0804F21D113F18C
:102FF0003872BCBF01F00040704741F480114FEAC5
:103000005252C2F11802C2F1200C10FA0CF320FA4D
:1030100002F018BF40F001004FEAC1234FEAD3236A
:1030200003FA0CFC40EA0C0023FA02F34FEA4303D4
:10303000CCE77FEA625307D150EA01331EBF4FF05D
:10304000FE4040F44000704701F0004040F0FE4078
:1030500040F40000704700BF80F0004002E000BF75
:1030600081F0004142001FBF5FEA410392EA030F73
:103070007FEA226C7FEA236C6AD04FEA1262D2EBBD
:103080001363C1BFD218414048404140B8BF5B42C2
:10309000192B88BF704710F0004F40F4000020F05B
:1030A0007F4018BF404211F0004F41F4000121F071
:1030B0007F4118BF494292EA030F3FD0A2F10102BB
:1030C00041FA03FC10EB0C00C3F1200301FA03F1F9
:1030D00000F0004302D5494260EB4000B0F5000F1C
:1030E00013D3B0F1807F06D340084FEA310102F1DB
:1030F0000102FE2A51D2B1F1004F40EBC25008BF8D
:1031000020F0010040EA03007047490040EB000056
:1031100010F4000FA2F10102EDD1B0FA80FCACF185
:10312000080CB2EB0C0200FA0CF0AABF00EBC25084
:1031300052421843BCBFD0401843704792F0000F72
:1031400081F4000106BF80F400000132013BB5E7C5
:103150004FEA41037FEA226C18BF7FEA236C21D03B
:1031600092EA030F04D092F0000F08BF08467047A0
:1031700090EA010F1CBF0020704712F07F4F04D16E
:10318000400028BF40F00040704712F100723CBF81
:1031900000F50000704700F0004343F0FE4040F4AB
:1031A000000070477FEA226216BF08467FEA236369
:1031B0000146420206BF5FEA412390EA010F40F454
:1031C000800070474FF0000304E000BF10F00043A0
:1031D00048BF40425FEA000C08BF704743F0964387
:1031E00001464FF000001CE050EA010208BF7047A2
:1031F0004FF000030AE000BF50EA010208BF704729
:1032000011F0004302D5404261EB41015FEA010C3D
:1032100002BF84460146002043F0B64308BFA3F135
:103220008053A3F50003BCFA8CF2083AA3EBC25317
:1032300010DB01FA02FC634400FA02FCC2F1200236
:10324000BCF1004F20FA02F243EB020008BF20F06D
:103250000100704702F1200201FA02FCC2F12002D3
:1032600050EA4C0021FA02F243EB020008BF20EAC8
:10327000DC7070474FF0FF0C1CEAD0521EBF1CEAF6
:10328000D15392EA0C0F93EA0C0F6FD01A4480EAE4
:10329000010C400218BF5FEA41211ED04FF00063CD
:1032A00043EA501043EA5111A0FB01310CF00040F9
:1032B000B1F5000F3EBF490041EAD3715B0040EA1F
:1032C000010062F17F02FD2A1DD8B3F1004F40EBEF
:1032D000C25008BF20F00100704790F0000F0CF0C2
:1032E000004C08BF49024CEA502040EA51207F3A86
:1032F000C2BFD2F1FF0340EAC250704740F4000061
:103300004FF00003013A5DDC12F1190FDCBF00F051
:1033100000407047C2F10002410021FA02F1C2F1FF
:10332000200200FA02FC5FEA310040F1000053EA9B
:103330004C0308BF20EADC70704792F0000F00F0E9
:10334000004C02BF400010F4000F013AF9D040EAEF
:103350000C0093F0000F01F0004C02BF490011F483
:10336000000F013BF9D041EA0C018FE70CEAD15381
:1033700092EA0C0F18BF93EA0C0F0AD030F0004C01
:1033800018BF31F0004CD8D180EA010000F00040B5
:10339000704790F0000F17BF90F0004F084691F073
:1033A000000F91F0004F14D092EA0C0F01D14202AD
:1033B0000FD193EA0C0F03D14B0218BF084608D176
:1033C00080EA010000F0004040F0FE4040F40000C0
:1033D000704740F0FE4040F4400070474FF0FF0C53
:1033E0001CEAD0521EBF1CEAD15392EA0C0F93EA9A
:1033F0000C0F69D0A2EB030280EA010C49024FEAEC
:10340000402037D04FF0805343EA111143EA1013A4
:103410000CF000408B4238BF5B0042F17D024FF45C
:10342000000C8B4224BF5B1A40EA0C00B3EB510F37
:1034300024BFA3EB510340EA5C00B3EB910F24BF20
:10344000A3EB910340EA9C00B3EBD10F24BFA3EBA5
:10345000D10340EADC001B0118BF5FEA1C1CE0D16D
:10346000FD2A3FF650AF8B4240EBC25008BF20F020
:10347000010070470CF0004C4CEA50207F32C2BF74
:10348000D2F1FF0340EAC250704740F400004FF011
:103490000003013A37E792F0000F00F0004C02BF42
:1034A000400010F4000F013AF9D040EA0C0093F00C
:1034B000000F01F0004C02BF490011F4000F013B66
:1034C000F9D041EA0C0195E70CEAD15392EA0C0FCE
:1034D00008D142027FF47DAF93EA0C0F7FF470AF06
:1034E000084676E793EA0C0F04D14B023FF44CAF49
:1034F00008466EE730F0004C18BF31F0004CCAD1DE
:1035000030F000427FF45CAF31F000437FF43CAF19
:103510005FE700BF4FF0FF3C06E000BF4FF0010C3B
:1035200002E000BF4FF0010C4DF804CD4FEA40021D
:103530004FEA41037FEA226C18BF7FEA236C11D067
:1035400001B052EA530C18BF90EA010F58BFB2EB1A
:10355000030088BFC81738BF6FEAE17018BF40F09A
:10356000010070477FEA226C02D15FEA402C05D14E
:103570007FEA236CE4D15FEA412CE1D05DF8040BD3
:10358000704700BF844608466146FFE70FB5FFF766
:10359000C9FF002848BF10F1000F0FBD4DF808ED1E
:1035A000FFF7F4FF0CBF012000205DF808FB00BF0F
:1035B0004DF808EDFFF7EAFF34BF012000205DF869
:1035C00008FB00BF4DF808EDFFF7E0FF94BF0120B6
:1035D00000205DF808FB00BF4DF808EDFFF7D2FFB3
:1035E00094BF012000205DF808FB00BF4DF808EDF6
:1035F000FFF7C8FF34BF012000205DF808FB00BFC3
:103600004FEA4002B2F1FE4F0FD34FF09E03B3EBEF
:1036100012620DD94FEA002343F0004310F0004F2F
:1036200023FA02F018BF404270474FF00000704785
:1036300012F1610F01D1420205D110F0004008BF24
:103640006FF0004070474FF00000704732000000FC
:10365000780000000000A0410000A042000FC93F18
:10366000000F494000CB9640000FC9400053FB407B
:1036700000CB164100ED2F41000F4941003162415E
:1036800000537B41003A8A4100CB9641005CA34144
:1036900000EDAF41007EBC41000FC94100A0D54103
:1036A0000031E24100C2EE410053FB4100F203420F
:1036B000003A0A420083104200CB164200141D4219
:1036C000005C234200A5294200ED2F42003636421D
:1036D000007E3C4200C74242000F4942A200000067
:1036E000F9000000830000006E0000004E000000A2
:1036F000440000001500000029000000FC0000004C
:103700002700000057000000D1000000F500000075
:1037100034000000DD000000C0000000DB000000FD
:103720006200000095000000990000003C000000CD
:10373000430000009000000041000000FE00000077
:103740005100000063000000AB000000DE0000003C
:10375000BB000000C500000061000000B7000000D1
:10376000240000006E0000003A000000420000004B
:103770004D000000D2000000E00000000600000044
:10378000490000002E000000EA00000009000000CF
:10379000D1000000920000001C000000FE000000AC
:1037A0001D000000EB0000001C000000B100000044
:1037B00029000000A70000003E000000E800000013
:1037C0008200000035000000F50000002E0000001F
:1037D000BB0000004400000084000000E90000007D
:1037E0009C0000007000000026000000B4000000F3
:1037F0005F0000007E000000410000003900000072
:1038000091000000D6000000390000008300000095
:103810005300000039000000F40000009C0000008C
:10382000840000005F0000008B000000BD0000006D
:10383000F9000000280000003B0000001F0000000D
:10384000F800000097000000FF000000DE0000000C
:1038500005000000980000000F000000EF000000CD
:103860002F000000110000008B0000005A00000033
:103870000A0000006D0000001F0000006D00000045
:10388000360000007E000000CF000000270000008E
:10389000CB00000009000000B70000004F0000004E
:1038A000460000003F000000660000009E0000008F
:1038B0005F000000EA0000002D000000750000001D
:1038C00027000000BA000000C7000000EB00000065
:1038D000E5000000F10000007B0000003D0000005A
:1038E0000700000039000000F70000008A00000017
:1038F0005200000092000000EA0000006B0000008F
:10390000FB0000005F000000B10000001F0000008D
:103910008D0000005D00000008000000560000005F
:10392000030000003000000046000000FC00000022
:103930007B0000006B000000AB000000F000000006
:10394000CF000000BC000000200000009A00000032
:10395000F4000000360000001D000000A900000077
:10396000E300000091000000610000005E00000024
:10397000E60000001B0000000800000065000000D9
:1039800099000000850000005F00000014000000A6
:10399000A000000068000000400000008D00000052
:1039A000FF000000D8000000800000004D00000073
:1039B0007300000027000000310000000600000036
:1039C000060000001500000056000000CA000000BC
:1039D00073000000A8000000C900000060000000A3
:1039E000E20000007B000000C00000008C0000002E
:1039F0006B00000004000000070000000900000048
:103A00000000C93F0000F0390000DA370000A2339F
:103A10000000842E0000502B0000C2270000D0229E
:0C3A20000000C41F0000C61B000044177B
:0400000508000000EF
:00000001FF
