:020000040800F2
:10000000FC34012089010008E1010008E101000839
:10001000E1010008E1010008E10100080000000022
:10002000000000000000000000000000E1010008E6
:10003000E101000800000000E1010008E101000802
:10004000E1010008E1010008E1010008E101000808
:10005000E1010008E1010008E1010008E1010008F8
:10006000E1010008E1010008E1010008E1010008E8
:10007000E1010008E1010008E1010008E1010008D8
:10008000E1010008E1010008E1010008E1010008C8
:10009000E1010008E1010008E1010008E1010008B8
:1000A000E1010008E1010008E1010008E1010008A8
:1000B000ED0D0008E1010008E1010008E101000880
:1000C000E1010008E1010008E1010008E101000888
:1000D000E1010008E1010008E1010008E101000878
:1000E000E1010008E1010008E1010008E101000868
:1000F000E1010008E1010008E1010008E101000858
:10010000E1010008E1010008E1010008E101000847
:10011000E1010008E1010008E1010008E101000837
:10012000E1010008E1010008E1010008E101000827
:10013000E1010008E1010008E1010008E101000817
:10014000E1010008E1010008E1010008E101000807
:10015000A50E0008E1010008E1010008E101000826
:10016000E1010008E1010008E1010008E1010008E7
:10017000E1010008E1010008E1010008E1010008D7
:10018000E1010008E101000880B582B000AF0F4B2B
:100190007B600F4B3B6007E03B681A1D3A607A6852
:1001A000111D796012681A603B680A4A9342F3D3C2
:1001B00009480A494FF000028842B8BF40F8042BB2
:1001C000FADB00F011F80837BD4680BD02140008C4
:1001D000000000200000002000000020FC2C012076
:1001E00080B400AFFEE700BF80B584B000AF00F080
:1001F00077F900F08FFCE02000F05CFC6423FB60EA
:100200006423BB6010E0FB68DBB23B71BB68DBB210
:100210007B713B1D1846032100F00CFCFB68013389
:10022000FB60BB680133BB60FB68C72BEBDD134A87
:100230003B4612881A803B46184600F021FC0346D4
:10024000FB71C823FB606423BB6011E0FB68DBB279
:100250003B71BB68DBB27B713A1DFB7910461946D6
:1002600000F0E8FBFB680133FB60BB680133BB6057
:10027000FB68B3F5967FE9DBFEE700BF00140008DA
:1002800080B483B000AF78600B46FB70FB78002B26
:1002900006D00949084B1A6B7B6813430B6306E0D1
:1002A0000549054B1A6B7B68DB4313400B630C3726
:1002B000BD465DF8047B70470038024080B483B0CF
:1002C00000AF78600B46FB70FB78002B06D0094925
:1002D000084B1A6C7B6813430B6406E00549054B19
:1002E0001A6C7B68DB4313400B640C37BD465DF82A
:1002F000047B70470038024080B483B000AF786060
:100300000B46FB70FB78002B06D00949084B5A6C52
:100310007B6813434B6406E00549054B5A6C7B68C8
:10032000DB4313404B640C37BD465DF8047B7047DC
:100330000038024080B487B000AF78603960002395
:100340007B6100233B610023FB6000237B6176E03F
:100350007B69012202FA03F33B613B681A683B693F
:100360001340FB60FA683B699A4265D17B681A6862
:100370007B695B00194603238B40DB431A407B6893
:100380001A607B681A683B681B7919467B695B00B9
:1003900001FA03F31A437B681A603B681B79012B4F
:1003A00003D03B681B79022B2ED17B689A687B694E
:1003B0005B00194603238B40DB431A407B689A603D
:1003C0007B689A683B685B7919467B695B0001FA38
:1003D00003F31A437B689A607B685A687B699BB217
:1003E000194601238B40DB431A407B685A607B68C7
:1003F0005B683A68927911467A6992B201FA02F220
:1004000092B21A437B685A607B68DA687B699BB258
:100410005B00032101FA03F3DB431A407B68DA60D7
:100420007B68DA683B68DB7919467B695B0001FA17
:1004300003F31A437B68DA607B6901337B617B6974
:100440000F2B85D91C37BD465DF8047B704700BF74
:1004500080B485B000AF78600B467B8013467B701C
:100460000023FB600023BB607B787A8802F00702E0
:1004700092009340FB607B88DB089BB218467B8828
:10048000DB089BB21A467B68083253F822207B882F
:1004900003F007039B0019460F238B40DB4302EA5E
:1004A00003017B6800F1080243F822107B88DB0817
:1004B0009BB21A467B68083253F82220FB6813432C
:1004C000BB607B88DB089BB21A467B680832B96840
:1004D00043F822101437BD465DF8047B704700BF17
:1004E00080B500AF114A114B1B6843F00103136044
:1004F0000E4B00229A600D4A0C4B1B6823F084734C
:1005000023F480331360094B094A5A60074A074BAA
:100510001B6823F480231360044B0022DA6000F090
:100520000BF8044B4FF000629A6080BD0038024027
:100530001030002400ED00E080B483B000AF002351
:100540007B6000233B60354A344B1B6843F48033A7
:100550001360324B1B6803F400333B607B6801334C
:100560007B603B68002B03D17B68B3F5A06FF0D1B3
:100570002A4B1B6803F40033002B02D001233B609D
:1005800001E000233B603B68012B42D1234A234B0F
:100590001B6C43F080531364214A214B1B6843F4C6
:1005A000804313601D4A1D4B9B6893601B4A1B4B85
:1005B0009B6843F400439360184A184B9B6843F4CC
:1005C000A0539360154B174A5A60144A134B1B688B
:1005D00043F08073136000BF104B1B6803F000737F
:1005E000002BF9D0104B40F205621A600B4A0B4BFE
:1005F0009B6823F003039360084A084B9B6843F011
:100600000203936000BF054B9B6803F00C03082BAB
:10061000F9D10C37BD465DF8047B704700380240C5
:100620000070004008544007003C024080B483B092
:1006300000AF78607B681B6823F001027B681A605A
:100640007B6800221A607B6800225A607B68002267
:100650009A607B680022DA607B6800221A617B68FE
:1006600021225A617B68454A934203D1444B3D2283
:100670009A607EE07B68434A934204D1404B4FF43A
:1006800074629A6075E07B683F4A934204D13C4BA8
:100690004FF474129A606CE07B683C4A934204D138
:1006A000374B4FF074629A6063E07B68384A93423C
:1006B00003D1334B374ADA605BE07B68364A9342BA
:1006C00003D12F4B354ADA6053E07B68344A9342BA
:1006D00003D12B4B334ADA604BE07B68324A9342BA
:1006E00004D1274B4FF03D52DA6042E07B682F4A3D
:1006F000934203D12E4B3D229A603AE07B682D4A0B
:10070000934204D12A4B4FF474629A6031E07B68C3
:10071000294A934204D1264B4FF474129A6028E080
:100720007B68264A934204D1214B4FF074629A6051
:100730001FE07B68224A934203D11D4B154ADA60C1
:1007400017E07B681F4A934203D1194B134ADA60C2
:100750000FE07B681C4A934203D1154B114ADA60C3
:1007600007E07B68194A934203D1114B4FF03D5289
:10077000DA600C37BD465DF8047B704710600240BC
:100780000060024028600240406002405860024021
:10079000706002403D00002088600240400F002051
:1007A000A060024000003D20B8600240106402409A
:1007B00000640240286402404064024058640240E1
:1007C0007064024088640240A0640240B864024041
:1007D00080B485B000AF786039600023FB607B682F
:1007E0001B68FB60FA68244B1340FB603B681A6887
:1007F0003B68DB681A433B685B691A433B689B694B
:100800001A433B68DB691A433B681B6A1A433B681F
:100810005B6A1A433B689B6A1A433B685B6B1A43EB
:100820003B689B6B1343FA681343FB607B68FA6871
:100830001A607B685B69FB60FB6823F00703FB6061
:100840003B68DA6A3B681B6B1343FA681343FB602F
:100850007B68FA685A613B681A697B685A603B6832
:100860005A687B689A603B689A687B68DA601437DC
:10087000BD465DF8047B70473F801CF080B483B0B8
:1008800000AF78600B46FB70FB78002B06D07B68CE
:100890001B6843F001027B681A6005E07B681B68F7
:1008A00023F001027B681A600C37BD465DF8047BBB
:1008B000704700BF80B485B000AFF860B9601346E0
:1008C000FB71BB6803F08003002B0FD0FB79002B7A
:1008D00006D0FB685B6943F08002FB685A6105E063
:1008E000FB685B6923F08002FB685A61BB68802B60
:1008F00014D0FB79002B08D0FB681A68BB6803F0A2
:100900001E031A43FB681A6008E0FB681A68BB689C
:1009100003F01E03DB431A40FB681A601437BD4620
:100920005DF8047B704700BF80B487B000AF78608B
:1009300039600023FB750023FB600023BB607B68EC
:10094000224A934202D8224B3B6101E0214B3B619A
:100950003B6823F0F02323F0C313002B0AD03B683D
:10096000DB0A03F01E03FB607B681A68FB68134018
:10097000BB6004E07B685B6903F08003BB603B689D
:1009800003F00053002B03D03B695B68FB6002E07F
:100990003B691B68FB60FB6823F0F02323F08213A4
:1009A000FB60FA683B681340002B05D0BB68002B46
:1009B00002D00123FB7501E00023FB75FB7D184687
:1009C0001C37BD465DF8047B704700BF0F640240D2
:1009D000006002400064024080B485B000AF7860DF
:1009E00039607B68104A934202D8104BFB6001E0EB
:1009F0000F4BFB603B6803F00053002B07D03B68B4
:100A000023F0F02323F08213FA68D36006E03B68FA
:100A100023F0F02323F08213FA6893601437BD4665
:100A20005DF8047B704700BF0F6402400060024025
:100A30000064024080B582B000AF78600B46FB7066
:100A40007B685B781A4613469B0013449B01134452
:100A50007A68127813440949FA78CA54786800F021
:100A60000FF803461A46FB78934201D0012300E0B9
:100A7000002318460837BD4680BD00BF0C0000208B
:100A800080B483B000AF78607B685B781A46134609
:100A90009B0013449B0113447A6812781344044A60
:100AA000D35C18460C37BD465DF8047B704700BF29
:100AB0000C00002080B584B000AF0346FB7100231A
:100AC000FB731FE00023BB8115E0BB89DBB23B72E7
:100AD000FB7B7B7207F10802FB7910461946FFF792
:100AE000A9FF0346FB72FB7A002B01D0FB7A0DE0D5
:100AF000BB890133BB81BB89B3F5A07FE5D3FB7B09
:100B00000133FB73FB7BEF2BDCD9FB7A18461037E4
:100B1000BD4680BD80B582B000AF1B4B00221A805D
:100B2000194B00225A60184B00229A600023BB80A8
:100B300017E00023FB800DE0BA8813469B001344A6
:100B40009B011A44FB881344104A0021D154FB88AE
:100B50000133FB80FB88B3F5A07FEDD9BB8801335F
:100B6000BB80BB88EF2BE4D900F014F800F066F8E6
:100B700000F0F4F800F0C6F8054B1B68024A9360D9
:100B80000837BD4680BD00BF000000200C000020DB
:100B90008864024080B582B000AF10200121FFF7C9
:100BA0006FFB4FF47F433B6001233B710023BB711C
:100BB0000123FB7103237B713B461E481946FFF757
:100BC000B9FB1C4B4FF47F425A8302200121FFF7EF
:100BD00057FB4FF400633B6002233B7103237B719F
:100BE0000023BB710123FB713B4613481946FFF7F5
:100BF000A1FB11480B210122FFF72AFC0220012151
:100C0000FFF73EFB4FF480533B6001233B71002311
:100C1000BB710123FB7103237B713B4606481946D8
:100C2000FFF788FB044B4FF480521A830837BD4608
:100C300080BD00BF001002400004024080B588B0B3
:100C400000AF01200121FFF757FB0B23BB610023FD
:100C5000BB820023BB830023FB8207F114032848D7
:100C6000194600F0A5F901200121FFF727FB40F606
:100C70006B23BB610023BB820023BB830023FB8269
:100C800007F114034FF08040194600F091F96023FA
:100C90003B8001237B804FF4D273BB600223BB8176
:100CA0003B464FF08040194600F02CFA4FF0804050
:100CB000082100F013FB60233B8001237B804FF46D
:100CC000A073BB600223BB813B464FF080401946B6
:100CD00000F09EFA4FF08040082100F01BFB08480E
:100CE000012100F0CFF94FF08040012100F0CAF956
:100CF0004FF08040012100F0E5F92037BD4680BD6E
:100D00000000014080B582B000AF134810210122DD
:100D1000FFF7D0FD44233B7100237B710023BB719F
:100D20000123FB713B1D184600F0E2F84FF08040B4
:100D30000821012200F00CFB1C233B7100237B7176
:100D40000023BB710123FB713B1D184600F0D0F856
:100D50000837BD4680BD00BF8864024080B590B0B2
:100D600000AF4FF480000121FFF78AFA1B480021F1
:100D7000FFF784FD1948FFF759FC4FF040637B6093
:100D8000174BBB60174BFB6040233B6140F24113A4
:100D90007B610023BB614FF48063FB6100233B62F6
:100DA00000237B620023BB624FF44033FB620023CD
:100DB0003B6301237B630023BB630023FB633B1D79
:100DC00006481946FFF704FD07484FF480710122D9
:100DD00000F0F2FA4037BD4680BD00BF8864024093
:100DE000151002400C0000200000014080B500AF4B
:100DF0004FF08040082100F0CFFA254B1B880133CB
:100E00009AB2234B1A80224B1B88B3F5037F05D976
:100E10001F4B00221A801F4A1D4B5A601C4B1B8817
:100E2000012B04D81C4B4FF480525A8303E01A4B19
:100E30004FF480521A83164B1B88232B27D9144B4F
:100E40001B8840F20222934221D8144A104B9B681F
:100E50001360124A0E4B5B68D360114A104B1B881B
:100E60009BB243F001039BB213800C4A0B4B1B68EF
:100E700043F001031360064B1B8803F00103002BB2
:100E800005D0034B5B6803F24113014A536080BDF8
:100E9000000000200C000020000402408864024092
:100EA0000000014080B500AF0D480E49FFF73CFD42
:100EB0000346002B12D00A480A49FFF78DFD0A4A63
:100EC000094B1B889BB223F001039BB21380044B98
:100ED00000221A60054B4FF47F425A8380BD00BF49
:100EE0008864024000880020000001400010024099
:100EF00080B485B000AF78600023FB730023BB7320
:100F00000F237B737B68DB78002B38D0264BDB68A4
:100F1000DB4303F4E0631B0AFB73FB7BC3F10403B5
:100F2000BB737A7BFB7B42FA03F37B737B685B7852
:100F30001A46BB7B02FA03F3FB737B689A787B7BD0
:100F40001340DAB2FB7B1343FB73FB7B1B01FB7388
:100F5000164A7B681B781344FA7B83F80023134AF4
:100F60007B681B785B09DBB218467B681B7803F053
:100F70001F03012101FA03F342F820300FE00B496F
:100F80007B681B785B09DBB218467B681B7803F033
:100F90001F0301229A4000F1200341F82320143757
:100FA000BD465DF8047B704700ED00E000E100E025
:100FB00080B485B000AF786039600023FB817B6826
:100FC0001B88FB817B68284A934213D07B68274AA1
:100FD00093420FD07B68B3F1804F0BD07B68244ADB
:100FE000934207D07B68234A934203D07B68224A0E
:100FF000934208D1FB8923F07003FB813B685A8838
:10100000FB891343FB817B681C4A93420CD07B68AD
:101010001B4A934208D0FB8923F44073FB813B6851
:101020001A89FB891343FB817B68FA891A803B6824
:101030005A687B68DA623B681A887B681A857B6825
:10104000094A934203D07B68084A934204D13B6823
:101050009B7A9AB27B681A867B6801229A8214373F
:10106000BD465DF8047B704700000140000401406C
:101070000004004000080040000C00400010004048
:101080000014004080B483B000AF78600B46FB7062
:10109000FB78002B08D07B681B889BB243F0800351
:1010A0009AB27B681A8007E07B681B889BB223F0AA
:1010B00080039AB27B681A800C37BD465DF8047BCA
:1010C000704700BF80B483B000AF78600B46FB7000
:1010D000FB78002B08D07B681B889BB243F0010390
:1010E0009AB27B681A8007E07B681B889BB223F06A
:1010F00001039AB27B681A800C37BD465DF8047B09
:10110000704700BF80B485B000AF786039600023BD
:101110007B810023FB810023BB817B681B8C9BB2FE
:1011200023F480739AB27B681A847B681B8CFB81E2
:101130007B689B88BB817B689B8B7B817B8923F051
:1011400070037B817B8923F003037B813B681A88D2
:101150007B8913437B81FB8923F40073FB813B680C
:101160009B891B029AB2FB891343FB813B685B8816
:101170001B029AB2FB891343FB817B68224A93428C
:1011800003D07B68214A93422BD1FB8923F400636F
:10119000FB813B68DB891B029AB2FB891343FB810D
:1011A000FB8923F48063FB813B689B881B029AB216
:1011B000FB891343FB81BB8923F48053BB81BB892B
:1011C00023F40053BB813B681B8A1B019AB2BB8985
:1011D0001343BB813B685B8A1B019AB2BB891343F3
:1011E000BB817B68BA899A807B687A899A833B68DD
:1011F0009A687B68DA637B68FA891A841437BD467B
:101200005DF8047B704700BF00000140000401400E
:1012100080B485B000AF786039600023BB810023C3
:101220007B810023FB817B681B8C9BB223F4805362
:101230009AB27B681A847B681B8C7B817B689B8855
:10124000FB817B689B8BBB81BB8923F4E043BB8123
:10125000BB8923F44073BB813B681B881B029AB295
:10126000BB891343BB817B8923F400537B813B689B
:101270009B891B039AB27B8913437B813B685B8804
:101280001B039AB27B8913437B817B68114A93428B
:1012900003D07B68104A93420AD1FB8923F4804330
:1012A000FB813B681B8A9B019AB2FB891343FB813C
:1012B0007B68FA899A807B68BA899A833B689A68C6
:1012C0007B681A647B687A891A841437BD465DF896
:1012D000047B7047000001400004014080B485B0E9
:1012E00000AF78600B467B800023FB817B689B8B83
:1012F000FB81FB8923F00803FB81FA897B88134378
:10130000FB817B68FA899A831437BD465DF8047BBC
:10131000704700BF80B485B000AF78600B467B801B
:101320000023FB817B689B8BFB81FB8923F400639B
:10133000FB817B881B029AB2FB891343FB817B688C
:10134000FA899A831437BD465DF8047B704700BF65
:1013500080B483B000AF78600B467B8013467B700F
:101360007B78002B08D07B689B899AB27B881343DB
:101370009AB27B689A8109E07B689B899AB27B88E4
:10138000DB439BB213409AB27B689A810C37BD460F
:101390005DF8047B704700BF80B483B000AF786015
:1013A0000B467B807B88DB439AB27B681A820C37C2
:1013B000BD465DF8047B704780B483B000AF7860B1
:1013C0000B467B8013467B707B78002B08D07B68B4
:1013D0009B899AB27B8813439AB27B689A8109E011
:1013E0007B689B899AB27B88DB439BB213409AB29D
:1013F0007B689A810C37BD465DF8047B704700BF5F
:02140000646422
:0400000508000000EF
:00000001FF
